:020000022000DC
:10300000000001203D32020095320200973202009A
:10301000993202009B3202009D3202000000000043
:103020000000000000000000000000009F320200CD
:10303000A132020000000000A3320200A53202000B
:10304000C5540200AB320200B94F0200AF32020099
:103050007D740200B3320200B5610200B732020093
:10306000B9320200BB320200BD320200BF320200A0
:10307000C1320200C3320200C5320200C732020070
:10308000C9320200E5580200CD320200CF32020000
:10309000D1320200D332020011420200D7320200C4
:1030A000D9320200DB320200DD320200DF320200E0
:1030B000E1320200E3320200A7320200A73202002E
:1030C000E5320200E7320200E9320200EB32020090
:0C30D000ED320200EF320200F13202008B
:1030DC00364937480A1A02D0072291438D463549A2
:1030EC0035480A1A06D00722914381F30988022237
:1030FC0082F3148831483249324A00F045F832489C
:10310C003249334A00F040F832483349334A00F030
:10311C003BF833483349344A00F036F833483449E5
:10312C00344A00F031F834483449354A00F02CF870
:10313C0034483549354A00F027F8354835490022DE
:10314C0000F02DF834483549002200F028F83448B6
:10315C003449091A082903DB00220260043001609B
:10316C00314A90471F482049884205D002680430F4
:10317C0003B4904703BCF7E700208646EC460020DA
:10318C0000212A4A9047FEE7884207D0521A05D000
:10319C00037801300B700131013AF9D17047884244
:1031AC0002D002700130FAE77047000000000120E5
:1031BC0000F800200000012000000120207C02000B
:1031CC006856002074560020F4320200F4320200DB
:1031DC00DC750200207C0200685600206856002036
:1031EC00F4750200F4750200F4750200F475020027
:1031FC00F4750200F4750200F4750200F475020017
:10320C001E7C02002C7C0200745600207456002098
:10321C007456002060570020605700206057002033
:10322C006057002060590020613202003F3A0200D2
:10323C000F484FF00701884385460E4880470E48DB
:10324C00016841F470010160BFF34F8FBFF36F8FC2
:10325C00FFF73EBF09480A490A4A884207D0521A6A
:10326C0005D0037801300B700131013AF9D1704768
:10327C00000001202D33020088ED00E0F4750200FF
:10328C006856002068560020FEE7FEE7FEE7FEE7E2
:10329C00FEE7FEE7FEE7FEE7FEE7FEE7FEE7FEE7FA
:1032AC00FEE7FEE7FEE7FEE7FEE7FEE7FEE7FEE7EA
:1032BC00FEE7FEE7FEE7FEE7FEE7FEE7FEE7FEE7DA
:1032CC00FEE7FEE7FEE7FEE7FEE7FEE7FEE7FEE7CA
:1032DC00FEE7FEE7FEE7FEE7FEE7FEE7FEE7FEE7BA
:0832EC00FEE7FEE7FEE700BF6C
:1032F400BFF34F8F0549054BDB6803F4E062044BD1
:103304001343CB60BFF34F8F00BFFDE700ED00E038
:103314000400FA05024B034A1A6000BF704700BF5D
:10332400685600200090D00308B500F05BF903460E
:10333400002B06D09A4A9B4B1B681B0A03F01F0301
:10334400136000F07BF90346002B02D0964B974A9A
:103354001A6000F08FF90346002B06D0944A954B6F
:103364001B685B0B03F00703136000F0AFF903461F
:10337400002B05D0904A904BDB6823F08073D36018
:1033840000F0C0F90346002B0ED04FF0804300221A
:10339400C3F80C214FF080430022C3F810214FF0F2
:1033A40080430022C3F8382500F0D8F90346002BE7
:1033B40002D0824B03221A6000F0ECF90346002B82
:1033C4000BD07F4B05221A607E4B01221A607E4B84
:1033D40000221A607D4B3F221A6000F0F7F9034681
:1033E400002B76D07A4A4FF08053D3F80434C2F8D5
:1033F4002035774A4FF08053D3F80834C2F8243587
:10340400734A4FF08053D3F80C34C2F82835704A0D
:103414004FF08053D3F81034C2F82C356C4A4FF077
:103424008053D3F81434C2F83035694A4FF08053CE
:10343400D3F81834C2F83435654A4FF08053D3F8C2
:103444001C34C2F84035624A4FF08053D3F820341C
:10345400C2F844355E4A4FF08053D3F82434C2F89E
:1034640048355B4A4FF08053D3F82834C2F84C35C2
:10347400574A4FF08053D3F82C34C2F85035544A8D
:103484004FF08053D3F83034C2F85435504A4FF0DB
:103494008053D3F83434C2F860354D4A4FF080532A
:1034A400D3F83834C2F86435494A4FF08053D3F81E
:1034B4003C34C2F86835464A4FF08053D3F8403460
:1034C400C2F86C35424A4FF08053D3F84434C2F802
:1034D400703500F097F90346002B05D03D4A3E4B6A
:1034E4001B6803F04F03136000F0B8F90346002B88
:1034F4000DD04FF08043D3F8003403F00103002BC8
:1035040005D04FF080436FF00102C3F80024334A22
:10351400324BD3F8883043F47003C2F88830BFF3D9
:103524004F8FBFF36F8F4FF01023D3F80032002B6F
:1035340005DB4FF01023D3F80432002B2BDA284B91
:103544000122C3F8042500BF254BD3F80034002B17
:10355400FAD04FF010231522C3F8002200BF204BED
:10356400D3F80034002BFAD04FF010231522C3F8FF
:10357400042200BF1A4BD3F80034002BFAD0184BA6
:103584000022C3F8042500BF154BD3F80034002BE8
:10359400FAD0FFF7ADFEFFF7BDFE00BF08BD00BFC8
:1035A400403501402403001074C007400DF0ADBA4B
:1035B4003C05004044020010F0ED00E0A00500408E
:1035C40010560040885600401856004014560040DB
:1035D40000C00040E40E00405802001000ED00E07E
:1035E40000E00140124B1B68DBB2062B1DD1114BCE
:1035F4001B6803F00F03002B17D10F4B1B6803F05C
:10360400F003302B01D1012310E00B4B1B6803F0B6
:10361400F003402B01D1012308E0074B1B6803F0A2
:10362400F003502B01D1012300E00023184670471A
:10363400E00F00F0E40F00F0E80F00F00A4B1B6805
:10364400DBB2062B0DD1094B1B6803F00F03002BD3
:1036540007D1074B1B6803F0F003302B01D1012382
:1036640000E0002318467047E00F00F0E40F00F07C
:10367400E80F00F0124B1B68DBB2062B1DD1114B77
:103684001B6803F00F03002B17D10F4B1B6803F0CB
:10369400F003302B01D1012310E00B4B1B6803F026
:1036A400F003402B01D1012308E0074B1B6803F012
:1036B400F003502B01D1012300E00023184670478A
:1036C400E00F00F0E40F00F0E80F00F00A4B1B6875
:1036D400DBB2062B0DD1094B1B6803F00F03002B43
:1036E40007D1074B1B6803F0F003302B01D10123F2
:1036F40000E0002318467047E00F00F0E40F00F0EC
:10370400E80F00F0124B1B68DBB2062B1DD1114BE6
:103714001B6803F00F03002B17D10F4B1B6803F03A
:10372400F003302B01D1012310E00B4B1B6803F095
:10373400F003402B01D1012308E0074B1B6803F081
:10374400F003502B01D1012300E0002318467047F9
:10375400E00F00F0E40F00F0E80F00F00A4B1B68E4
:10376400DBB2062B0DD1094B1B6803F00F03002BB2
:1037740007D1074B1B6803F0F003302B01D1012361
:1037840000E0002318467047E00F00F0E40F00F05B
:10379400E80F00F00A4B1B68DBB2062B0DD1094B76
:1037A4001B6803F00F03002B07D1074B1B6803F0C2
:1037B400F003302B01D1012300E0002318467047A9
:1037C400E00F00F0E40F00F0E80F00F00A4B1B6874
:1037D400DBB2062B0DD1094B1B6803F00F03002B42
:1037E40007D1074B1B6803F0F003502B01D10123D1
:1037F40000E0002318467047E00F00F0E40F00F0EB
:10380400E80F00F0124B1B68DBB2062B1DD1114BE5
:103814001B6803F00F03002B17D10F4B1B6803F039
:10382400F003302B01D1012310E00B4B1B6803F094
:10383400F003402B01D1012308E0074B1B6803F080
:10384400F003502B01D1012300E0002318467047F8
:10385400E00F00F0E40F00F0E80F00F0124B1B68DB
:10386400DBB2062B1DD1114B1B6803F00F03002B99
:1038740017D10F4B1B6803F0F003302B01D1012348
:1038840010E00B4B1B6803F0F003402B01D1012324
:1038940008E0074B1B6803F0F003502B01D1012310
:1038A40000E0002318467047E00F00F0E40F00F03A
:1038B400E80F00F084B00190244B0393019B002B8C
:1038C40040D0234B1A680399019B00BF00BF00BF7F
:1038D40000BF00BF00BF00BF00BF8A422FD000BF9F
:1038E40000BF00BF00BF00BF00BF00BF00BF00BFDC
:1038F40000BF00BF00BF00BF00BF00BF00BF00BFCC
:1039040000BF00BF00BF00BF00BF00BF00BF00BFBB
:1039140000BF00BF00BF00BF00BF00BF00BF00BFAB
:1039240000BF00BF00BF00BF00BF00BF00BF00BF9B
:1039340000BF00BF00BF00BF00BF00BF00BF013B0E
:10394400C3D1019300BF04B0704700BF0024F4004A
:103954006856002000B583B00190019B4FF47A7241
:1039640002FB03F31846FFF7A5FF00BF03B05DF8A1
:1039740004FB82B001900B468DF803309DF80320C0
:10398400019B13441A460123136000BF02B0704721
:1039940000B583B00190019B1B681F2B04D9054916
:1039A4004FF4E87000F081FB4FF0A043184603B0D9
:1039B4005DF804FBF475020000B585B0019008467B
:1039C40011461A4603468DF803300B468DF8023033
:1039D40013468DF8013001AB1846FFF7D9FF039069
:1039E400019A9DF803109DF802305B0019439DF87D
:1039F40001309B0019439DF818301B0219439DF8B0
:103A04001C301B041943039B02F5E07243F8221097
:103A140000BF05B05DF804FB00B585B0039000233A
:103A24000193002300930023012201210398FFF74F
:103A3400C3FF00BF05B05DF804FB00B59DB00023D3
:103A44008DF86F3000F03CF801AB184603F03EFDF2
:103A54009DF80430242B02D10120FFF77BFF4FF4A3
:103A64007A70FFF777FFEFE700B583B003468DF870
:103A740007309DF80730002B0CD1084B082118465D
:103A8400FFF777FF054B04211846FFF772FF044B3D
:103A940001221A7000BF03B05DF804FB001001405E
:103AA4007456002082B001900B468DF80330034B0E
:103AB40001221A7000BF02B0704700BF7556002083
:103AC40008B500F083F900F00FF800F027F800F0D3
:103AD4008FFC00F05DF800F083F803F0D7FC0520BC
:103AE400FFF79AFF00BF08BD00B583B001F0D8FB13
:103AF4000190019B0093009B002B05D0064A40F2E5
:103B04000B11009800F077F9002001F023FC00BFAE
:103B140003B05DF804FB00BF2876020000B585B051
:103B2400164A6B4692E80300186004331980202378
:103B3400ADF800306B46124A1946124801F0B0FD48
:103B44000390039B0293029B002B05D00E4A4FF473
:103B54008C71029800F04FF90A4801F00DFE0B4BEE
:103B640004211846FFF705FF084B08211846FFF704
:103B740000FF00BF05B05DF804FB00BF64760200DF
:103B84006D3A02008076020028760200001001409F
:103B940000B585B00F4B1B6801930023039301AB61
:103BA4000D4A19460C2002F0DBF90390039B0293A3
:103BB400029B002B05D0094A40F22711029800F01D
:103BC4001AF901210C2002F02FFA00BF05B05DF8AC
:103BD40004FB00BF6C760200A93A020028760200BA
:103BE40010B586B0104B6C460FCB84E80F000F2342
:103BF4000093112301936946002300220B4803F02C
:103C04000BF80590059B0493049B002B05D0084AF0
:103C140040F23511049800F0EEF8044803F088F8F7
:103C240000BF06B010BD00BF7076020088760200A7
:103C34002876020000B583B00190019B1B681F2BFE
:103C440004D905494FF4E87000F02FFA4FF0A0436F
:103C5400184603B05DF804FB9076020000B585B009
:103C64000190084611461A4603468DF803300B4668
:103C74008DF8023013468DF8013001AB1846FFF77A
:103C8400D9FF0390019A9DF803109DF802305B0060
:103C940019439DF801309B0019439DF818301B020D
:103CA40019439DF81C301B041943039B02F5E07271
:103CB40043F8221000BF05B05DF804FB00B585B0E1
:103CC4000390002301930023009300230122012188
:103CD4000398FFF7C3FF00BF05B05DF804FB00B510
:103CE40085B0019001AB1846FFF7A4FF0390019B38
:103CF400012202FA03F31946039800F02AF800BFE0
:103D040005B05DF804FB00B585B0019001AB184621
:103D1400FFF790FF0390019B012202FA03F3194677
:103D2400039800F020F800BF05B05DF804FB00B56F
:103D340083B001900091009B002B03D10198FFF701
:103D4400E2FF02E00198FFF7CAFF00BF03B05DF88D
:103D540004FB82B001900091019B009AC3F80825EE
:103D640000BF02B0704782B001900091019B009A9D
:103D7400C3F80C2500BF02B07047000000B583B043
:103D84000190019B002B03D00649442000F08DF9DB
:103D9400082300211846FFF7CAFF00BF03B05DF8EF
:103DA40004FB00BFC476020000B583B00023019376
:103DB40005E00198FFF7E2FF019B01330193019BAA
:103DC400002BF6D000BF03B05DF804FB00B583B050
:103DD4000023019306E008231846FFF76FFF019BB9
:103DE40001330193019B002BF5D0FFF7DDFF00BFEA
:103DF40003B05DF804FB00B589B003900291019211
:103E0400029B9BB2ADF81430019B0693039B07936E
:103E140005AB1A46002144F2010000F051F800BF3E
:103E240009B05DF804FB000086B003900291019292
:103E340001238DF817309DF81730204A039B136037
:103E44001E4A029B53601D4A019B9360039B44F2EC
:103E54000102934212D044F20202934222D1019B06
:103E6400164AD360154BDB681B881A46134B9A61BC
:103E7400124BDB685B68114AD36113E0019B0F4A64
:103E840013610E4B1B699B680C4A53610B4B1B69F6
:103E94001B881A46094B9A61084B1B695B68074AE1
:103EA400D36100BF72B600BF9DF81730DBB2002BA0
:103EB400FAD162B600BF06B0704700BF7856002042
:103EC40000B587B0039002910192039B41F2010275
:103ED400934215D041F20102934202D8012B11D032
:103EE40011E044F20102934207D044F202029342E9
:103EF40000D008E0019B059305E0019B049302E0D8
:103F040000BF00E000BF084B1B6803F00103002B57
:103F140000D0FFDE019A02990398FFF785FF00BFE6
:103F240007B05DF804FB00BFF0ED00E082B0EFF3F2
:103F340010830093009B019372B6019B184602B054
:103F4400704762B600BF704700B585B00190FFF7B7
:103F5400EDFF0390164B9B68002B1BD1144B0122E1
:103F64009A60144BD3F88020134B1340104A13600B
:103F7400104B114AC3F880200E4BD3F884300C4AFE
:103F840053600C4B4FF0FF32C3F88420019B002296
:103F94001A7002E0019B01221A70039B002B01D1CD
:103FA400FFF7CFFF0023184605B05DF804FB00BF00
:103FB4009856002000E100E0FC06FFBD00B585B086
:103FC40003468DF80730104B9B68002B16D09DF8E4
:103FD4000730002B12D1FFF7A9FF03900B4A0A4BBD
:103FE4001B681360094A084B5B685360064B002248
:103FF4009A60039B002B01D1FFF7A3FF002318460F
:1040040005B05DF804FB00BF9856002000E100E015
:1040140000B583B0019000F02BF80346012B03D0C8
:104024000549432000F041F80198FFF78DFF00BFD8
:1040340003B05DF804FB00BFF076020000B583B066
:1040440003468DF8073000F013F80346012B03D024
:104054000649512000F029F89DF807301846FFF76B
:10406400ADFF00BF03B05DF804FB00BFF0760200B3
:1040740084B0EFF305830193019BC3F30803039317
:10408400039B002B0DD1EFF314830093009B029349
:10409400029B03F00103002B0CBF01230023DBB2BE
:1040A40000E00123184604B0704700B585B003460C
:1040B4000091ADF80630BDF80630ADF80830009B2D
:1040C400039302AB1A46002144F20200FFF7F8FE04
:1040D40000BF05B05DF804FB00B583B0019000910A
:1040E400019B002B03D110495020FFF7DEFF009BFA
:1040F400002B03D10C495120FFF7D7FF019B009AF5
:104104001A60019B1B681A68019B5A60019B5A68DC
:10411400019B1B685B689A4202D1019B00225A6092
:1041240000BF03B05DF804FB2C77020000B583B038
:104134000190019B002B03D114496320FFF7B5FFC5
:10414400019B1B68002B03D110496420FFF7ADFFCE
:10415400019B5B68002B14D0019B5B681A46019B92
:104164001B689B6813441A46019B5A60019B5A685A
:10417400019B1B685B689A4204D1019B00225A6030
:1041840000E000BF03B05DF804FB00BF2C77020021
:1041940000B583B00190019B002B03D10449C420D6
:1041A400FFF783FF019B5B68184603B05DF804FBCF
:1041B4007C770200014B1B7818467047A4560020F8
:1041C40000B585B06B4610491846FFF785FF10E02F
:1041D4006B461846FFF7DCFF0390039B1B680293B2
:1041E400039B5A68029B104698476B461846FFF794
:1041F4009DFF6B461846FFF7CBFF0346002BE7D124
:1042040000BF05B05DF804FB0878020008B5FFF7AD
:10421400D7FF00BF08BD000000B583B00190019B2B
:10422400002B03D10449C420FFF73FFF019B5B68C7
:10423400184603B05DF804FB1478020048DF7047A9
:1042440000BF184600B589B0019004AB1846FFF7CB
:10425400F5FF0790079B002B03D0079B052B20D16C
:1042640024E002AB13491846FFF736FF11E002AB16
:104274001846FFF7D1FF0690069B1B680593049A26
:10428400069B5968059B1046984702AB1846FFF7F2
:104294004DFF02AB1846FFF7BFFF0346002BE6D1E4
:1042A400D3E7054A6B210798FFF7A5FD00BF09B0C6
:1042B4005DF804FBA07802006478020082B00190EB
:1042C4000B468DF803309DF80320019B13441846D8
:1042D40002B0704700B583B001900B468DF80330EF
:1042E400019B1B689DF8032011461846FFF7E6FF63
:1042F4000346184603B05DF804FB000030B589B0EE
:10430400374B1B6800930023079302F05FF9079073
:10431400079B0693069B002B04D0324A1F21069864
:10432400FFF769FD01F0D4FD0790079B0593059BFA
:10433400002B04D02B4A22210598FFF75CFD6B4625
:1043440000221946032001F00BFE0790079B0493FB
:10435400049B002B04D0234A25210498FFF74BFD2E
:10436400214802F047F90790079B0393039B002B16
:1043740004D01C4A29210398FFF73DFD1A4B1C78F1
:10438400032001F0D9FE054608211848FFF7A2FFD3
:1043940003461A462946204602F086F90790079BF1
:1043A4000293029B002B04D00E4A2F210298FFF7A0
:1043B40022FD0D4B1B78184602F0B1F90790079BBC
:1043C4000193019B002B04D0064A32210198FFF788
:1043D40012FD0121032001F027FE00BF09B030BD0A
:1043E4000C790200B4780200A7560020AC780200D1
:1043F40030B58BB00C4B01AC1D460FCD0FC495E806
:104404000F0084E80F00032302930223019301ABFE
:10441400064A1946064800F05BFB0990FFF76EFF59
:1044240000BF0BB030BD00BF107902003944020058
:104434006C56002082B001900091019B1B78002BE8
:1044440003D1074B00221A7006E0019B1B78012B55
:1044540002D1044B01221A7000BF02B0704700BFA2
:10446400A5560020A656002084B001900B46ADF856
:104474000230BDF80230019A134400221A60BDF8DC
:104484000230019A13441B680393039B00BF04B0DA
:10449400704782B001900B46ADF80230BDF802308F
:1044A400019A13441B68002B14BF01230023DBB2C1
:1044B400184602B0704782B001900091019B009AA7
:1044C400C3F8042300BF02B0704782B0019000918A
:1044D400019BD3F80423009B1340002B14BF01233A
:1044E4000023DBB2184602B0704782B001900091FD
:1044F400019B009AC3F8082300BF02B0704784B040
:104504000190019BD3F880340393019B039AC3F871
:104514008024039B184604B0704782B00190019B2D
:104524000422C3F8002500BF02B0704784B0039092
:1045340002910192039B019AC3F81425039B029AEA
:10454400C3F80C2500BF04B0704784B003900291F7
:104554000192039B029AC3F80825039B019AC3F8AE
:10456400102500BF04B0704782B00190019BD3F8BE
:104574001835DBB2184602B0704782B001900B4682
:104584008DF803309DF80320019BC3F81C2500BF60
:1045940002B0704782B001900B468DF803309DF84D
:1045A4000330019A134401221A6000BF02B070471D
:1045B40082B001900B468DF8033013468DF802301B
:1045C4009DF803209DF802301343DBB21A46019B89
:1045D400C3F86C2500BF02B0704782B0019000910F
:1045E400019B009AC3F8242500BF02B0704784B031
:1045F40001900B46ADF80230BDF80230019A134425
:1046040000221A60BDF80230019A13441B68039318
:10461400039B00BF04B0704782B001900B46ADF815
:104624000230BDF80230019A13441B68002B14BFFA
:1046340001230023DBB2184602B0704782B0019018
:104644000091019BD3F80022009BDB431A40019B9D
:10465400C3F8002200BF02B0704782B001900091FD
:10466400019B009AC3F8042300BF02B0704784B0D2
:104674000190019BD3F880340393019B039AC3F800
:104684008024039B184604B0704782B00190019BBC
:104694000822C3F8002500BF02B0704784B003901D
:1046A40002910192039B029AC3F80C25039B019A81
:1046B400C3F8142500BF04B0704784B0039002917E
:1046C4000192039B029AC3F80825039B019AC3F83D
:1046D400102500BF04B0704782B001900B468DF8DE
:1046E400033013468DF802309DF803209DF8023004
:1046F4001343DBB21A46019BC3F86C2500BF02B01A
:10470400704782B001900091019B009AC3F8242560
:1047140000BF02B0704782B00190019BD3F84C35C2
:10472400184602B0704782B00190019BD3F83C3523
:10473400184602B0704784B00190019B1B0B8DF8A2
:104744000F309DF90F30184604B0704700B583B0A0
:104754000190019B1B681F2B04D905494FF4E87095
:10476400FFF7A3FC4FF0A043184603B05DF804FB29
:104774003079020000B585B00190084611461A460A
:1047840003468DF803300B468DF8023013468DF83E
:10479400013001AB1846FFF7D9FF0390019A9DF849
:1047A40003109DF802305B0019439DF801309B0013
:1047B40019439DF818301B0219439DF81C301B0443
:1047C4001943039B02F5E07243F8221000BF05B0C1
:1047D4005DF804FB00B585B003900023019300232A
:1047E40000930023012201210398FFF7C3FF00BFB8
:1047F40005B05DF804FB00B585B003900B468DF859
:104804000B309DF80B2000230193002300931346E3
:10481400002200210398FFF7ADFF00BF05B05DF84B
:1048240004FB00B585B0019001AB1846FFF78EFF7D
:104834000390019B012202FA03F31946039800F046
:1048440004F800BF05B05DF804FB82B0019000914C
:10485400019B009AC3F8082500BF02B0704700000E
:1048640000B583B001900091009B1B68B3F1FF3F3A
:1048740009D0009B1B681846FFF7D3FF009B1B68F9
:104884001846FFF7A7FF009B5B68B3F1FF3F05D015
:10489400009B5B6800211846FFF7ADFF019B1B7965
:1048A400464A5B0113441C331B78002B41D0019B07
:1048B4001A68009B9B6919461046FFF722FF019B6B
:1048C4001868009B597D009B1B7D1A46FFF704FF67
:1048D400019B1868009B1968009B5B681A46FFF7E8
:1048E400DDFE009B1B7D012B64D1009B9B68B3F113
:1048F400FF3F05D0009B9B6800211846FFF77BFF14
:10490400009BDB68B3F1FF3F09D0009BDB681846CE
:10491400FFF787FF009BDB681846FFF75BFF019BEF
:104924001868009BD968009B9B681A46FFF7C5FE70
:1049340040E0019B1A68009B9B6919461046FFF7EB
:104944004CFE019B1868009B597D009B1B7D1A46F9
:10495400FFF72EFE019B1868009B1968009B5B689B
:104964001A46FFF7E3FD009B1B7D012B22D1009B20
:104974009B68B3F1FF3F05D0009B9B68002118465C
:10498400FFF739FF009BDB68B3F1FF3F09D0009BC1
:10499400DB681846FFF745FF009BDB681846FFF706
:1049A40019FF019B1868009BD968009B9B681A46F5
:1049B400FFF7CBFD00BF03B05DF804FBA856002051
:1049C40000B583B001900B468DF80330019B1B7931
:1049D4002D4A5B0113441C331B78002B2FD0019B01
:1049E4001B684FF488711846FFF701FE019B1B6892
:1049F4004FF490711846FFF7FAFD019B1B684FF4C2
:104A040092711846FFF7F3FD019B1B684FF4A271E6
:104A14001846FFF7ECFD019B1B681C491846FFF77D
:104A24001CFE019B1B681846FFF785FE03461A46C9
:104A34009DF803301946104600F026FB20E0019B48
:104A44001B684FF48E711846FFF70EFD019B1B681F
:104A54004FF4A2711846FFF707FD019B1B680C4930
:104A64001846FFF728FD019B1B681846FFF763FEF5
:104A740003461A469DF803301946104600F004FB1D
:104A840000BF03B05DF804FBA85600201003020029
:104A94008000020000B583B00190019B1B790B4A92
:104AA4005B0113441C331B78002B05D0019B1B684E
:104AB4001846FFF7EAFD04E0019B1B681846FFF760
:104AC4002CFD00BF03B05DF804FB00BFA856002016
:104AD40000B587B0039002910192029B002B04D190
:104AE40022494FF48870FFF7E0FA039B1B795B01BE
:104AF4001F4A1344059300230493059BDB7E002B7C
:104B040003D008230493049B2BE0029B5A7F059B4C
:104B14001A7702990398FFF7A3FE059B019A5A603E
:104B2400029B1A69059B1A60059B5B68002B05D0E4
:104B3400029B1B7F19460398FFF742FF0398FFF778
:104B4400A9FF059B0022DA75059B00221A76059BB6
:104B540000229A75059B0122DA76059B00229A763B
:104B6400049B184607B05DF804FB00BF647902009B
:104B7400A856002000B585B0019000914FF48E71C5
:104B84000198FFF771FC009B9B68009A928A92B28D
:104B940013441B788DF80F30009B9B8A9BB2013322
:104BA4009AB2009B9A829DF80F3019460198FFF73C
:104BB400E4FC00BF05B05DF804FB10B582B00190C1
:104BC4000091009BDB7D002B08D14FF48471019888
:104BD400FFF74AFC0198FFF7C7FC16E04FF4847115
:104BE4000198FFF741FC009BDB68009A527ED2B229
:104BF4009C180198FFF7B8FC03462370009B5B7E6A
:104C0400DBB20133DAB2009B5A7602B010BD00B5B4
:104C140089B003900B4601928DF80B3001238DF877
:104C240010309DF80B308DF81830019B0593039BD1
:104C34005B68039A116804AA1046984700BF09B03C
:104C44005DF804FB00B587B001900B468DF8033086
:104C540000238DF808309DF803308DF81030019B47
:104C64009B680393019B00229A75019B5B68019AE0
:104C7400116802AA1046984700BF07B05DF804FB0C
:104C840000B589B0019000914FF400710198FFF7CD
:104C94001CFC0346002B39D04FF492710198FFF7A6
:104CA400F8FB0346002B31D04FF492710198FFF7C3
:104CB400DBFB4FF401710198FFF717FC009B9B7E0F
:104CC40083F00103DBB2002B03D004210198FFF72A
:104CD40061FC02238DF808300198FFF710FC0346AD
:104CE4000593009BDB7D8DF81030009BDB680393FC
:104CF400009B0022DA75009B00221A76009B5B68F9
:104D0400009A116802AA1046984756E004210198B7
:104D1400FFF7DBFB0346002B4FD04FF4847101985F
:104D2400FFF7B7FB0346002B47D000990198FFF724
:104D340044FF009BDA7D009B5B7EDBB29A423CD150
:104D4400009B1B7E002B1CD0009BDB680793009B01
:104D54005B7E8DF81B30009B1A7E009BDA75009BEE
:104D64001A69009BDA60009B00221A76009B0022DD
:104D74005A769DF81B30079A19460098FFF747FFAB
:104D84001BE0009B9B7E83F00103DBB2002B03D06E
:104D940004210198FFF7FEFB4FF401710198FFF71E
:104DA400A4FB009B0022DA75009B5B7ED9B2009BBA
:104DB400DB681A460098FFF72AFF4FF48E710198BA
:104DC400FFF767FB0346002B1BD0009B9B8A9AB21C
:104DD400009B9B7D9BB29A4204D200990198FFF7F5
:104DE400C9FE0EE04FF48E710198FFF73DFB009B66
:104DF4009B7D002B05D0009B9B7D19460098FFF7F7
:104E040021FF4FF4A2710198FFF743FB0346002BE7
:104E14001CD04FF4A2710198FFF726FB009B9B7EE8
:104E2400002B03D000210198FFF7B4FB009BDB7D2E
:104E3400002B0BD0009B0022DA75009B5B7ED9B25D
:104E4400009BDB681A460098FFF7E1FE00BF09B03B
:104E54005DF804FB00B589B0019000914FF49271A4
:104E64000198FFF7D9FB0346002B24D04FF492712D
:104E74000198FFF7BCFB02238DF808300198FFF777
:104E8400F6FB034605930198FFF74DFC0346DBB29E
:104E94008DF81030009BDB680393009B0022DA75C9
:104EA400009B00221A76009B5B68009A116802AA94
:104EB4001046984741E04FF488710198FFF7ACFB26
:104EC4000346002B39D04FF488710198FFF78FFB0C
:104ED4000198FFF728FC03468DF81F30009BDB7D0B
:104EE4009DF81F209A4228D1009B1B7E002B19D0CD
:104EF400009BDB68069320210198FFF79FFB009B32
:104F04001A7E009BDA75009B1A69009BDA60009B8D
:104F140000221A769DF81F30069A19460098FFF76A
:104F240076FE0AE0009B0022DA75009BDA689DF8A1
:104F34001F3019460098FFF76AFE4FF4A2710198DA
:104F4400FFF76AFB0346002B16D04FF4A2710198B9
:104F5400FFF74DFB009BDB7D002B0DD0009B002257
:104F6400DA750198FFF7DFFB0346D9B2009BDB68D3
:104F74001A460098FFF74BFE4FF490710198FFF723
:104F84004BFB0346002B11D04FF490710198FFF7AF
:104F94002EFB009B9B7D002B08D00198FFF7BBFBE9
:104FA4000346DBB219460098FFF74CFE00BF09B078
:104FB4005DF804FB08B5074B1B7F002B04D00549A3
:104FC4000548FFF747FF03E002490348FFF758FE8F
:104FD40000BF08BDA85600200020004082B0034650
:104FE4008DF8073007499DF907305B099DF80720C4
:104FF40002F01F02012000FA02F241F8232000BF50
:1050040002B0704700E100E082B003468DF807303B
:1050140008499DF907305B099DF8072002F01F023B
:10502400012000FA02F2603341F8232000BF02B0ED
:10503400704700BF00E100E082B0034600918DF8A4
:1050440007309DF90730002B0CDA0D499DF8073025
:1050540003F00F03043B009AD2B25201D2B20B44C4
:105064001A7609E007499DF90730009AD2B2520135
:10507400D2B20B4483F8002300BF02B0704700BFD4
:1050840000ED00E000E100E000B583B003460A460D
:105094008DF8073013468DF806309DF80630012B45
:1050A40003D99DF80630032B0CD99DF80630042B48
:1050B40003D99DF80630072B04D90D494FF492709B
:1050C400FEF7F3FF9DF806209DF9073011461846B8
:1050D400FFF7B2FF9DF907301846FFF795FF9DF9DA
:1050E40007301846FFF77AFF00BF03B05DF804FBF2
:1050F400A079020082B003468DF8073008499DF973
:1051040007305B099DF8072002F01F02012000FA16
:1051140002F2203341F8232000BF02B0704700BFE1
:1051240000E100E082B001904FF08042019BC2F8A0
:10513400043300BF02B0704782B001904FF0804248
:10514400019BC2F8083300BF02B0704782B0034627
:105154008DF807309DF8073003F1804301221A606F
:1051640000BF02B0704784B00346ADF80630BDF806
:10517400063003F1804300221A60BDF8063003F1C3
:1051840080431B680393039B00BF04B0704782B045
:105194000346ADF80630BDF8063003F180431B68C2
:1051A400002B14BF01230023DBB2184602B0704762
:1051B40082B003468DF807304FF080429DF80730E7
:1051C40003F00303C2F8183500BF02B070474FF074
:1051D4008043D3F818341B0C03F00103002B14BFD5
:1051E40001230023DBB218467047000082B0034657
:1051F4008DF807300A4A9DF907305B0952F82320DD
:105204009DF8073003F01F03012101FA03F3134053
:10521400002B14BF01230023DBB2184602B07047F1
:1052240000E100E008B50020FFF7E0FF034683F04B
:105234000103DBB2002B03D007210020FFF724FF7A
:1052440000BF08BD08B54FF48270FFF78CFF022041
:10525400FFF768FF0820FFF779FF00BF08BD0000D3
:1052640008B5FEF7A7FF034683F00103DBB2002B6A
:1052740003D109498420FEF718FF0C20FFF766FFCD
:1052840000BFFFF7A4FF0346002BFAD1034B002213
:105294009A7000BF08BD00BFE0790200C856002024
:1052A40000B583B000230193134B1B78002B02D06D
:1052B400852301931BE0104B00229A600E4B0022C1
:1052C4005A600D4B00221A610B4B0022DA60FFF783
:1052D400A9FFFEF76FFF034683F00103DBB2002B47
:1052E40002D00020FFF764FF034B01221A70019BD8
:1052F400184603B05DF804FBC856002084B0019042
:105304000091019B1B68039306E0039A009B9A4259
:105314000DD0039B1B680393039B002BF5D1019BCA
:105324001A68009B1A60019B009A1A6000E000BF93
:1053340004B0704784B00190019B1B680393039BE6
:10534400002B03D0039B1A68019B1A60039B184629
:1053540004B0704700B585B00190294B1B78002B31
:1053640003D12849FB20FEF7A0FE254B9B78DBB236
:10537400002B19D0019B002B03D0019B5B680120FB
:10538400984700238DF80F300DF10F031846FEF7F0
:105394003FFE1B4BDB680133194AD3609DF80F3085
:1053A4001846FEF74BFE1EE000238DF80E300DF17B
:1053B4000E031846FEF72CFE019B002B03D0019927
:1053C4001148FFF79BFF0E4BDB68002B01D1FFF761
:1053D40039FF0B4BDB680133094AD3609DF80E306B
:1053E4001846FEF72BFE064BDB68002B04D105495B
:1053F40040F21710FEF759FE00BF05B05DF804FB3C
:10540400C8560020E0790200D856002000B583B0C9
:10541400164B1B78002B04D115494FF48E70FEF700
:1054240044FE124BDB68002B04D1114940F21D10DD
:10543400FEF73BFE00238DF807300DF107031846F5
:10544400FEF7E6FD094BDB68013B084AD360074BD6
:10545400DB68002B01D1FFF703FF9DF807301846E6
:10546400FEF7ECFD00BF03B05DF804FBC856002056
:10547400E079020000B585B003468DF807309DF849
:105484000730002B02D10C4B039301E00B4B039329
:105494000398FFF74FFF0290029B002B06D0029B5C
:1054A4005B689DF8072010469847F1E700BF00BFEE
:1054B40005B05DF804FB00BFD0560020D85600208C
:1054C40008B54FF48070FFF762FE0346002B0CD042
:1054D4004FF48070FFF747FE0120FFF72DFE0E4BBF
:1054E40001225A700020FFF7C5FF4FF48270FFF7C6
:1054F4004EFE0346002B0CD04FF48270FFF733FEB0
:105504000220FFF719FE044B01229A700120FFF7D5
:10551400B1FF00BF08BD00BFC856002000B583B06E
:1055240001900091019B002B02D10020FFF7A2FF04
:1055340000BF03B05DF804FB00B585B003460091DD
:105544008DF807309DF80730012B08D0032B25D0A8
:10555400002B00D032E00020FFF7CCFD2EE000232A
:105564008DF80F300DF10F031846FEF751FD154B62
:105574001B7883F00103DBB2002B01D0FFF790FE10
:10558400104BDB6801330F4AD3600E4B01229A7033
:105594009DF80F301846FEF751FD0FE0094B1B78BC
:1055A400002B04D1084940F25B20FEF77EFD072161
:1055B4000020FFF769FDFFF729FF00BF00BF05B01A
:1055C4005DF804FBC8560020E079020082B0019027
:1055D4000091019B009AC3F8082300BF02B07047F2
:1055E40082B001900091019BD3F80423009B1340E7
:1055F400184602B0704782B001900B46ADF80230F5
:10560400BDF80230019A13441B68184602B0704773
:1056140084B001900B46ADF80230BDF80230019A17
:10562400134400221A60BDF80230019A13441B6827
:105634000393039B00BF04B07047000000B583B020
:1056440001900091009BB3F5805F04D3064940F2BA
:105654003110FEF72AFD019B009AC3F8082500BF0C
:1056640003B05DF804FB00BF1C7A020082B0019015
:105674000B468DF803309DF80320019B13441A4612
:105684000123136000BF02B0704782B00190009103
:10569400019B009AC3F8482300BF02B07047000082
:1056A40000B587B0039002910192029B002B03D1B5
:1056B4002E495520FEF7F9FC019B002B12D0039BC9
:1056C4005B7919462A4A019B42F82130039B5B7996
:1056D4001946284A0B465B000B4413441B78002BE5
:1056E40008D003E007230593059B3BE008230593BB
:1056F400059B37E0039B93F90420029B9B78194692
:105704001046FFF7C1FC039B1A68029B1B881946CD
:105714001046FFF793FF039B5B791946029B1879A8
:10572400144A0B465B000B441344013302461A70BF
:10573400039B5B791946029BD8780E4A0B465B00A3
:105744000B441344023302461A70039B5B791946D7
:10575400084A0B465B000B44134401221A700023D1
:105764000593059B184607B05DF804FB507A0200C8
:10577400DC560020E056002000B583B00190019B68
:105784005B7919460F4A0B465B000B4413441B78A4
:10579400012B03D00C498C20FEF787FC019B1B686E
:1057A40000211846FFF762FF019B5B791946054A01
:1057B4000B465B000B44134402221A7000BF03B073
:1057C4005DF804FBE0560020507A020000B589B071
:1057D4000390029101924FF4803306934FF4A07327
:1057E400ADF816300023079330E006990398FFF7CD
:1057F400F7FE0346002B1ED0BDF816301946039859
:10580400FFF7F9FE0346002B15D006990398FFF71E
:105814003CFF06990398FFF7D9FEBDF816301946E8
:105824000398FFF7F5FE2D4A029B52F82330079A9E
:10583400D2B210469847069B5B000693BDF816301B
:105844000433ADF81630079B01330793079A019B85
:105854009A42CAD34FF48073ADF8163001210398ED
:10586400FFF7BEFE0346002B14D0BDF816301946D0
:105874000398FFF7C0FE0346002B0BD0BDF816308B
:1058840019460398FFF7C4FE144A029B52F82330CA
:10589400042098474FF48273ADF816300221039820
:1058A400FFF79EFE0346002B14D0BDF816301946B0
:1058B4000398FFF7A0FE0346002B0BD0BDF816306B
:1058C40019460398FFF7A4FE044A029B52F82330BA
:1058D4000520984700BF09B05DF804FBDC560020A2
:1058E40008B5042200210248FFF770FF00BF08BD7D
:1058F4000010014000B583B00346ADF80630BDF892
:105904000630184600F026F803461B68012B0CBF2E
:1059140001230023DBB2184603B05DF804FB00B595
:1059240085B00346ADF80630BDF80630184600F0E1
:1059340011F803461A4600231360BDF806301846D2
:1059440000F008F803461B680393039B00BF05B0EF
:105954005DF804FB82B00346ADF80630BDF80630AE
:1059640003F1804303F5C043184602B070470000BA
:1059740082B00190034A019BC2F8043300BF02B015
:10598400704700BF0060004082B00190034BD3F821
:105994000423019B1340184602B070470060004086
:1059A40082B001900849084A019B03F5A27352F89A
:1059B400233043F00102019B03F5A27341F8232035
:1059C40000BF02B0704700BF0060004084B0039085
:1059D400029113468DF807301449144A039B03F5CA
:1059E400A27352F8233023F4473323F44073039A09
:1059F40002F5A27241F822300C480C4A039B03F5CD
:105A0400A27352F82320029B1B0203F4F8519DF861
:105A140007301B0403F440330B431A43039B03F581
:105A2400A27340F8232000BF04B070470060004018
:105A340082B00190054A019B03F5A27352F823300A
:105A44001B0A03F01F03184602B0704700600040B1
:105A540082B00190064A019B03F5A27352F82330E9
:105A64001B0C03F00303DBB2184602B0704700BFFF
:105A74000060004000B583B00190019B1B681F2BA0
:105A840004D905494FF4E870FEF70FFB4FF0A0432B
:105A9400184603B05DF804FB887A020000B585B0AF
:105AA4000190084611461A4603468DF803300B460A
:105AB4008DF8023013468DF8013001AB1846FFF71C
:105AC400D9FF0390019A9DF803109DF802305B0002
:105AD40019439DF801309B0019439DF818301B02AF
:105AE40019439DF81C301B041943039B02F5E07213
:105AF40043F8221000BF05B05DF804FB00B585B083
:105B040003900B468DF80B309DF80B200023019376
:105B1400002300931346002200210398FFF7BEFFE1
:105B240000BF05B05DF804FB00B585B0019001AB82
:105B34001846FFF79FFF0390019A039B02F5E0725A
:105B440053F8223023F002030293019A039B02F5D7
:105B5400E072029943F8221000BF05B05DF804FB1F
:105B640000B585B001900B468DF8033001AB1846A3
:105B7400FFF780FF0390019A0199039B01F5E071FF
:105B840053F8213023F44031039B02F5E07243F8CB
:105B94002210019A0199039B01F5E07153F8213019
:105BA4009DF8031009041943039B02F5E07243F8BE
:105BB400221000BF05B05DF804FB00B585B001906C
:105BC40001AB1846FFF756FF0390039800F020F846
:105BD4000246019B22FA03F303F00103184605B0C1
:105BE4005DF804FB00B585B0019001AB1846FFF7E2
:105BF40041FF0390019A039B02F5E07253F82230AF
:105C04001B0C03F00303DBB2184605B05DF804FB7C
:105C140082B00190019BD3F81035184602B070474A
:105C240000B587B00390029101924FF0A043049312
:105C3400039A029B1344012B04D912494FF43A707E
:105C4400FEF733FA039B059311E0059B9B0006AA1C
:105C5400134453F8083C1846FFF7DAFF0246019B49
:105C64001A60019B04330193059B01330593039A46
:105C7400029B1A44059B9A42E7D800BF07B05DF81F
:105C840004FB00BF887A020084B001900091009B5D
:105C94000393019BDB080293019B03F00703019329
:105CA4000122019B02FA03F30399029A0A4412782F
:105CB4001340184604B0704784B001900091009BD3
:105CC4000393019BDB080293019B03F007030193F9
:105CD400039A029B13440399029A0A44127851B21C
:105CE4000120019A00FA02F252B20A4352B2D2B22D
:105CF4001A7000BF04B0704782B001900C4A019B37
:105D04001344283393F90030002B09DB084A019B24
:105D14001344283393F90030072B01DC012300E0FE
:105D2400002303F00103DBB2184602B0704700BF42
:105D3400E456002082B00190064A019B13442833A4
:105D440093F90030072BCCBF01230023DBB21846A4
:105D540002B07047E456002082B00190064A019BCD
:105D64001344283393F90030DB43DBB2DB09DBB2A5
:105D7400184602B0704700BFE456002084B0039078
:105D8400029101928DF80330029B59B20E4A039B93
:105D9400134428330A461A700B49029B019A41F8AE
:105DA40023209DF8033083F00103DBB2002B08D0DD
:105DB400029B083B039A51B2034A13440A4683F8F0
:105DC400482000BF04B07047E456002082B0019020
:105DD400044A019B13442833FF221A7000BF02B007
:105DE400704700BFE456002082B00190044A019B32
:105DF4001344283393F90030184602B0704700BFAB
:105E0400E456002082B00190034A019B52F82330EB
:105E1400184602B0704700BFE456002000B589B0B0
:105E24000390029113468DF80730FF238DF81F303D
:105E34009DF80730002B01D0002300E008230593D0
:105E44009DF80730002B01D0082300E00A230493B7
:105E5400059B069314E00F4A069B52F82330B3F1D6
:105E6400FF3F0AD19DF80730029A06990398FFF77D
:105E740085FF069B8DF81F3006E0069B01330693D1
:105E8400069A049B9A42E6D39DF91F30184609B03E
:105E94005DF804FBE456002082B003468DF8073019
:105EA4009DF80730094A4FF0FF3142F823109DF85E
:105EB4000730072B07D99DF80730083B034A1344E2
:105EC400FF2283F8482000BF02B07047E456002048
:105ED40000B583B0214B93F84A30002B03D008233C
:105EE4000093009B36E000238DF8073009E09DF80D
:105EF40007301846FFF76AFF9DF8073001338DF825
:105F040007309DF807301F2BF1D900238DF8073097
:105F140009E09DF807301846FFF7BEFF9DF80730EB
:105F240001338DF807309DF80730092BF1D907218B
:105F34000620FFF7A9F84FF4BE70FFF7F0FC4FF00E
:105F44000040FFF715FD054B012283F84A2000238A
:105F54000093009B184603B05DF804FBE456002050
:105F640000B587B0039002910192039B1F2B04D9C3
:105F74002B4940F2F710FEF798F800230593039895
:105F8400FFF7EAFE0346002B02D00823059341E005
:105F9400029BDB781A4601990398FFF73FFF0346FB
:105FA4008DF813309DF91330B3F1FF3F30D0029BCD
:105FB4009B78002B03D00398FFF7B6FD05E0029B06
:105FC4005B7819460398FFF799FD029BDB78002B59
:105FD40008D09DF91300029B1B781A460399FFF71A
:105FE400F5FC17E09DF91330083B9DF91320083A9E
:105FF4000C490A4492F94810029A1278920152B25A
:106004000A4351B2074A13440A4683F8482001E080
:1060140004230593059B184607B05DF804FB00BFF5
:10602400BC7A0200E456002000B587B001900B460C
:106034008DF80330019B1F2B04D93D4940F22520E4
:10604400FEF733F80198FFF787FE0346002B04D1CF
:10605400374940F22620FEF728F80198FFF76AFE38
:106064000346002B2FD00198FFF7BEFE0346083BE2
:10607400304A134493F948308DF816309DF81630A1
:106084009B098DF815309DF81530032B0BD1019821
:10609400FFF793FD0346002B01D0032300E0022306
:1060A4008DF8173008E09DF81530012B01D102233B
:1060B40000E003238DF817309DF817301946019836
:1060C400FFF74EFD30E00198FFF716FE0346002B64
:1060D4002AD00198FFF788FE03460493049B9BB2E1
:1060E40040339BB29B00ADF80E30049B1846FFF77B
:1060F40057FCBDF80E301846FFF711FC9DF803302D
:10610400002B11D00198FFF76FFE03461846FFF7E6
:1061140079FE0290029B002B06D00122049B02FA16
:1061240003F31846FFF724FC00BF07B05DF804FB37
:10613400BC7A0200E456002000B585B00190019BB2
:106144001F2B04D9194940F27920FDF7AEFF0198BD
:10615400FFF7F0FD0346002B0AD10198FFF7CCFDB1
:106164000346002B04D1114940F27A20FDF79DFF2C
:106174004FF4BE73ADF80E300198FFF7BDFD034632
:10618400002B09D00198FFF72FFE03469BB2403342
:106194009BB29B00ADF80E30BDF80E301846FFF7E9
:1061A400D9FB0346184605B05DF804FBBC7A02002F
:1061B40000B595B000231393002303934FF4807329
:1061C400ADF84630012310930023129321E0BDF86B
:1061D40046301846FFF78EFB0346002B0ED010986E
:1061E400FFF7D2FB0346002B08D0BDF84630184613
:1061F400FFF795FB139A109B13431393109B5B00BB
:106204001093BDF846300433ADF84630129B013389
:106214001293129B072BDAD94FF4BE70FFF76AFB77
:106224000346002B0DD04FF4BE70FFF778FB139B91
:1062340043F00043139303AB1A4601210020FFF7F8
:10624400EFFC139BDBB2002B29D001231093002316
:10625400129321E0109A139B1340002B16D012982E
:10626400FFF7E6FB0D901298FFF7F2FB03468DF85B
:1062740033301298FFF7C6FD0B900B9B002B05D013
:106284009DF833200B9B11460D989847109B5B009B
:106294001093129B01331293129B072BDAD9139B91
:1062A400002B80F2EE8000238DF83B300023029314
:1062B40000230F930AE00F9B9B0014AA13444FF092
:1062C400FF3243F84C2C0F9B01330F930F9B002B91
:1062D400F1D000238DF83B300023129378E06B4A11
:1062E400129B1344483393F900308DF82B309DF8FA
:1062F4002B3023F0C0030993644A129B13444833A0
:1063040093F90030B3F1FF3F5FD001AB1946099810
:10631400FFF7BAFC0346002B57D09DF82B309B099E
:106324008DF823300998FFF75FFD03461846FFF701
:1063340069FD0790079B002B03D19DF82330032BA5
:1063440043D19DF82330032B04D102AB194609989D
:10635400FFF7B2FC0998FFF745FC03468DF81B30A4
:1063640003AB19460998FFF78FFC0590059B002B9A
:1063740003D09DF81B30022B06D0059B002B24D1A3
:106384009DF81B30032B20D19DF82330032B13D110
:106394009DF81B30022B01D1032300E002238DF86A
:1063A40013309DF8133019460998FFF7D9FB9DF86F
:1063B4003B3001338DF83B30079B002B05D09DF813
:1063C4002320079B114609989847129B0133129387
:1063D400129B012B83D99DF83B30002B4CD0012319
:1063E4008DF83A306B461A4601210020FFF718FC5D
:1063F40000230F9314E00F9B9B0014AA134453F83B
:10640400502C0F9B9B0014A90B4453F8443C9A4214
:1064140003D000238DF83A3005E00F9B01330F932E
:106424000F9B002BE7D09DF83A30002B03D00023BC
:106434008DF83B3020E000230F931AE00F9B9B0064
:1064440014AA134453F8502C0F9B9B0014A90B441B
:1064540043F8442C0F9B9B0014AA134453F8482C74
:106464000F9B9B0014A90B4443F84C2C0F9B013346
:106474000F930F9B002BE1D09DF83B30002B7FF452
:1064840028AF00BF15B05DF804FB00BFE456002040
:1064940082B003468DF80730054A9DF80730012184
:1064A40001FA03F3C2F8043500BF02B0704700BF1D
:1064B40000F0014084B00346029101928DF80F3040
:1064C40008499DF80F30A233029A41F83320054A57
:1064D4009DF80F30A233DB001344019A5A6000BFC9
:1064E40004B0704700F0014082B003468DF80730D5
:1064F4009DF80730012202FA03F3184602B07047F0
:1065040000B583B003468DF807309DF80730184670
:10651400FFF7EAFF0346C3F31003002B14BF012364
:106524000023DBB2184603B05DF804FB82B001908F
:10653400019B5B0C5B04002B0CBF01230023DBB22B
:10654400184602B0704700B583B003468DF8073093
:106554009DF807301846FFF7C7FF03461846FFF7B4
:10656400E5FF0346184603B05DF804FB00B583B0AD
:1065740003468DF807309DF807301846FFF7B4FF3F
:106584000246064B1B681340002B14BF0123002353
:10659400DBB2184603B05DF804FB00BF345700209B
:1065A40000B583B003468DF807309DF807301846D0
:1065B400FFF79AFF0246044B1B681343024A136019
:1065C40000BF03B05DF804FB3457002082B0084BD1
:1065D4001B78002B05D1064B01221A70002301936E
:1065E40001E085230193019B184602B0704700BF68
:1065F4003057002000B587B0019000230593002395
:10660400039304230593274B039300238DF813303E
:106614003EE000238DF80B300DF10B031846FDF717
:10662400F7FC9DF813301846FFF75EFF0246039B04
:106634001340002B15D09DF813301846FFF796FF32
:10664400034683F00103DBB2002B0AD09DF813301C
:106654001846FFF7A5FF019B9DF813201A7000232D
:1066640005939DF80B301846FDF7E8FC059B002BBD
:1066740012D09DF813301846FFF736FF0346DB436C
:10668400039A134003939DF8133001338DF81330AC
:10669400039B002BBDD100E000BF059B184607B04B
:1066A4005DF804FBFFFF010000B587B003460291CB
:1066B40001928DF80F30029B002B01D10E232AE0AA
:1066C400019B002B01D10E2325E0002305939DF8A7
:1066D4000F301846FFF714FF034683F00103DBB2C3
:1066E400002B02D00723059314E09DF80F301846C1
:1066F400FFF73CFF034683F00103DBB2002B02D01B
:106704000823059306E09DF80F30019A0299184674
:10671400FFF7D0FE059B184607B05DF804FB00B5F3
:1067240085B003468DF80730002303939DF80730A6
:106734001846FFF708FF034683F00103DBB2002B82
:1067440002D0072303931AE09DF807301846FFF799
:10675400D7FE0346002B0DD09DF807301846FFF7EF
:1067640005FF034683F00103DBB2002B02D00823AC
:10677400039304E09DF807301846FFF789FE039B56
:10678400184605B05DF804FB82B001900B468DF805
:1067940003309DF80330019A134401221A6000BFAC
:1067A40002B0704784B001900B46ADF80230BDF8DA
:1067B4000230019A134400221A60BDF80230019A93
:1067C40013441B680393039B00BF04B0704782B05B
:1067D40001900B46ADF80230BDF80230019A134423
:1067E4001B68002B14BF01230023DBB2184602B040
:1067F400704782B001900091019B009AC3F8042372
:1068040000BF02B0704782B001900091019B009AD2
:10681400C3F8082300BF02B0704782B00190019B07
:106824000622C3F8002500BF02B0704784B003906D
:1068340002910192039B029AC3F80825039B019AD3
:10684400C3F80C2500BF04B0704782B001900091DA
:10685400019B009AC3F8242500BF02B0704784B09E
:106864000190019BD3F8C4340393019B039AC3F8AA
:10687400C424039B184604B0704782B001900B46B1
:106884008DF803309DF80320019BC3F8882500BFD1
:1068940002B0704784B00390029113468DF807301C
:1068A400029A039BC3F844259DF80720039BC3F871
:1068B400482500BF04B0704784B00390029113468A
:1068C4008DF80730029A039BC3F834259DF80720FE
:1068D400039BC3F8382500BF04B0704782B0019011
:1068E4000091019B009AC3F8002200BF02B07047D8
:1068F40082B00190019BD3F84C35184602B0704722
:1069040082B00190019BD3F83C35184602B0704721
:1069140082B00190019B0122C3F8502500BF02B050
:10692400704782B00190019B0022C3F8502500BF3C
:1069340002B0704782B00190019B0122C3F8402548
:1069440000BF02B0704782B00190019B0022C3F8DF
:10695400402500BF02B0704784B00190019B1B0B1F
:106964008DF80F309DF90F30184604B0704782B08F
:106974000190019B03F06043B3F1005F0CBF01235E
:106984000023DBB2184602B07047000000B583B0A4
:106994000190019B1B681F2B04D905494FF4E87033
:1069A400FDF783FB4FF0A043184603B05DF804FBEA
:1069B400FC7A020000B585B0019001AB1846FFF7E0
:1069C400E5FF0390019B012202FA03F319460398A1
:1069D40000F035F800BF05B05DF804FB00B585B0E4
:1069E400019001AB1846FFF7D1FF0390019B0122F0
:1069F40002FA03F31946039800F02BF800BF05B020
:106A04005DF804FB00B585B0019001AB1846FFF7B3
:106A1400BDFF0390039800F00AF80246019B22FA96
:106A240003F303F00103184605B05DF804FB82B0DC
:106A34000190019BD3F81035184602B0704782B01C
:106A440001900091019B009AC3F8082500BF02B091
:106A5400704782B001900091019B009AC3F80C2505
:106A640000BF02B07047000084B00190244B039330
:106A7400019B002B40D0234B1A680399019B00BF54
:106A840000BF00BF00BF00BF00BF00BF00BF8A42FD
:106A94002FD000BF00BF00BF00BF00BF00BF00BFBA
:106AA40000BF00BF00BF00BF00BF00BF00BF00BFEA
:106AB40000BF00BF00BF00BF00BF00BF00BF00BFDA
:106AC40000BF00BF00BF00BF00BF00BF00BF00BFCA
:106AD40000BF00BF00BF00BF00BF00BF00BF00BFBA
:106AE40000BF00BF00BF00BF00BF00BF00BF00BFAA
:106AF40000BF013BC3D1019300BF04B0704700BF86
:106B04000024F4006856002084B00190032303930A
:106B1400019B03F00203002B02D048F201230393EC
:106B2400019B03F00403002B02D048F202230393D9
:106B3400039B184604B0704700B585B001904FF030
:106B4400A042019B1B6803F5E07340F20C6142F81C
:106B540023104FF0A042019B5B6803F5E07340F201
:106B64000C6142F82310019B1B681846FFF722FFB3
:106B7400019B5B681846FFF71DFF4FF0A042019B85
:106B84001B6803F5E07340F20D6142F823104FF0E7
:106B9400A042019B5B6803F5E07340F20D6142F88B
:106BA40023100420FFF760FF002303931EE0019BE2
:106BB4005B681846FFF726FF0346002B03D0039BB0
:106BC400002B17D124E0019B1B681846FFF706FF32
:106BD4000420FFF749FF019B1B681846FFF7EAFEF4
:106BE4000420FFF741FF039B01330393039B082B0E
:106BF400DDDD00E000BF019B5B681846FFF7EEFE99
:106C04000420FFF731FF019B5B681846FFF7D2FEB3
:106C140005B05DF804FB000000B589B00390029153
:106C240001920093029B002B03D13F49F520FDF70D
:106C34003CFA029B1A68029B5B689A4203D13A4968
:106C4400F620FDF732FA039B1B791A4613469B0084
:106C54001344DB00354A13440793079B93F822300F
:106C6400002B03D008230693069B59E0079B019A47
:106C74001A60079B009A5A60079B00229A60079B40
:106C8400002283F82520079B002283F82420029BFE
:106C94009A7B079B83F82720029B5B7B002B02D007
:106CA4000298FFF749FF4FF0A042029B1B6803F5CF
:106CB400E07340F20C6142F823104FF0A042029BB3
:106CC4005B6803F5E07340F20C6142F82310039B08
:106CD4001B680593029B1968029B5B681A4605981A
:106CE400FFF7A4FD029B9B6819460598FFF7ADFDCD
:106CF400079B1B68002B0CD0039B1B681846FFF7EF
:106D04002BFE03461A46029B1B7B19461046FEF7D0
:106D1400BBF9079B012283F8222000230693069BDC
:106D2400184609B05DF804FB307B02003857002098
:106D340000B585B00190019B1B791A4613469B0050
:106D44001344DB000D4A13440393039B93F822304E
:106D5400012B04D00A4940F27710FDF7A6F9019BF4
:106D64001B6802930298FFF758FD039B022283F8E5
:106D7400222000BF05B05DF804FB00BF3857002097
:106D8400307B020000B583B001900091009B03F0BA
:106D94000103002B03D00198FFF7BAFD02E001982C
:106DA400FFF7BFFD009B03F00203002B03D0019803
:106DB400FFF7C0FD02E00198FFF7C5FD00BF03B077
:106DC4005DF804FB00B589B0039002910192009331
:106DD4000023079308238DF81B304FF48273ADF81A
:106DE4001830019B5B681846FFF7C1FD034683F02A
:106DF4000103DBB2002B03D010230793079B95E11B
:106E04004FF0FF310298FFF7FEFC039B93F8243008
:106E1400DBB2002B09D0039B9B6819460298FFF74D
:106E2400E8FC11230793079B80E1009B03F0040314
:106E3400002B06D1009B03F01003002B01D101238A
:106E440000E0002303F00103DAB2039B83F824205B
:106E5400039B019A0C3307CA83E80700009B03F0E5
:106E64001003002B14BF01230023DAB2039B83F821
:106E74002520019B5B7819460298FFF7FEFC4FF42E
:106E840082710298FFF78EFC4FF492710298FFF71B
:106E940089FC00990298FFF775FF019B1B78032B6F
:106EA40000F2E98001A252F823F000BFEF6F020064
:106EB400497002009D6F0200C16E0200009B03F046
:106EC4001003002B04D09B4940F23530FDF7EDF858
:106ED400009B03F00803002B04D0964940F236309F
:106EE400FDF7E3F8009B03F00403002B04D0914961
:106EF40040F23730FDF7D9F8019B9B681846FFF73D
:106F040036FD034683F00103DBB2002B03D01023CC
:106F14000793079B0AE14FF480710298FFF7DEFCA8
:106F2400019B5968019B9B781A460298FFF7B2FCB3
:106F34004FF4A8710298FFF735FC4FF4B071029832
:106F4400FFF730FC4FF4A4710298FFF72BFC2021CB
:106F54000298FFF719FC08210298FFF715FC00BFFF
:106F64004FF4A8710298FFF732FC034683F0010343
:106F7400DBB2002BF4D14FF4A8710298FFF712FC96
:106F8400019B9968019BDB781A460298FFF782FC03
:106F9400039B694A9A6071E0019B5968019B9B7845
:106FA4001A460298FFF776FC019B9B681846FFF788
:106FB400DEFC034683F00103DBB2002B03D0102375
:106FC4000793079BB2E0019B9968019BDB781A4603
:106FD4000298FFF771FC4FF484510298FFF77EFC8E
:106FE400039B40F202229A6048E0019B5968019B8E
:106FF4009B781A460298FFF74DFC009B03F0200390
:10700400002B11D04FF480710298FFF767FC039BAB
:10701400494A9A604FF4A4710298FFF7C3FB4FF4F6
:10702400A473ADF8183008E04FF400710298FFF72C
:1070340055FC039B40F202229A6020210298FFF73C
:10704400A3FB1BE0019B5968019B9B781A4602989D
:10705400FFF732FC4FF480510298FFF73FFC039B8B
:1070640040F202229A6000238DF81B3020210298FE
:10707400FFF78AFB02E00723079300BF009B03F09E
:107084000803002B09D1019B1B78032B05D09DF825
:107094001B3019460298FFF777FB039B1B68002BF4
:1070A40028D0009B03F00403002B03D0039B4FF470
:1070B40000729A60039B9B6819460298FFF799FB3C
:1070C40033E04FF492710298FFF781FB0346002BE3
:1070D40010D04FF492710298FFF764FB20210298BC
:1070E400FFF752FB14210298FFF74EFB4FF4827313
:1070F400ADF81830BDF8183019460298FFF767FB51
:10710400034683F00103DBB2002BDAD10298FFF7C8
:10711400A6FB0590039B002283F82420059B002BEB
:1071240003D00598FFF7F0FC0790079B184609B0B9
:107134005DF804FB307B02000002040000B587B058
:1071440003900291019200230593039B1B791A4635
:1071540013469B001344DB00144A13440493049B1A
:107164001B68002B08D1029B1B78022B04D1104909
:1071740040F2B730FCF799FF049B1B68002B08D141
:10718400029B1B78032B04D109494FF46E70FCF762
:107194008CFF039B1968019B029A0498FFF712FE67
:1071A4000590059B184607B05DF804FB385700208E
:1071B400307B020000B589B0039001921A460B4659
:1071C4008DF80B3013468DF80A3005AB00221A6097
:1071D4005A609A609DF80B308DF815309DF80A308E
:1071E4008DF81630019B06939DF82830002B01D0B2
:1071F400202200E0002205AB19460398FFF79EFF0A
:107204000346184609B05DF804FB00B589B0039045
:1072140001921A460B468DF80B3013468DF80A304E
:1072240005AB00221A605A609A6001238DF814306D
:107234009DF80B308DF815309DF80A308DF8163016
:10724400019B069305AB002219460398FFF776FFCE
:107254000346184609B05DF804FB000000B589B088
:1072640001900091009B1B68002B04D1814940F2DE
:107274003240FCF71AFF4FF492710198FFF7A7FA16
:107284000346002B27D04FF492710198FFF78AFA36
:107294004FF482710198FFF79AFA034683F00103D1
:1072A400DBB2002B17D0009B9B6819460198FFF7AF
:1072B400AAFA009B02229A60009B9B6819460198D7
:1072C400FFF797FA20210198FFF75EFA142101983D
:1072D400FFF75AFACAE04FF482710198FFF777FA80
:1072E4000346002B55D04FF482710198FFF75AFAE8
:1072F400009A04AB0C3207CA83E80700009B93F89A
:107304002330002B21D0009B1B7B012B05D101983E
:10731400FFF7F6FA0346DBB204E00198FFF7E8FA58
:107324000346DBB28DF81230009B1B7B022B05D188
:107334000198FFF7E5FA0346DBB204E00198FFF792
:10734400D7FA0346DBB28DF813304FF4B0710198CD
:10735400FFF728FA4FF4AE710198FFF723FA009B68
:1073640093F8253083F00103DBB2002B04D1009B9A
:1073740093F82330002B4DD000210198FFF7AEFA8B
:10738400009B00229A604FF0FF310198FFF73BFA0F
:1073940040E04FF4A4710198FFF704FA009B1B7BB3
:1073A400002B1AD1009A04AB0C3207CA83E80700F9
:1073B400009B93F8253083F00103DBB2002B29D026
:1073C40000210198FFF78AFA009B00229A604FF08F
:1073D400FF310198FFF717FA1CE04FF40071019890
:1073E400FFF77CFA009B40F202229A604FF0FF31D3
:1073F4000198FFF708FA009B9B6819460198FFF76C
:10740400F8F908210198FFF7BFF920210198FFF747
:10741400BBF92BE00198FFF722FA0790079B03F0D2
:107424000203002B03D001238DF80C300BE0079BE3
:1074340003F00403002B03D002238DF80C3002E088
:1074440000238DF80C30009B93F8253083F0010362
:10745400DBB2002B03D0009B002283F82420009B86
:107464001B68009A516803AA1046984709B05DF852
:1074740004FB00BF307B020008B503494FF04020F5
:10748400FFF7ECFE00BF08BD3857002000B5ADB0D3
:107494000C4A02AB1146A622184600F043F802AB90
:1074A400184600F069F80346D9B202AA00230093F3
:1074B4000B4642210448FFF77DFE00BF2DB05DF866
:1074C40004FB00BF787B0200707B020000B585B02E
:1074D4000390039BFD221A70012300930123039A56
:1074E40042210F48FFF766FE0223039A42210C480B
:1074F400FFF78BFE039B01331B78002B0CD0039BFF
:1075040001331B78632B07D8039B01331B78039A41
:1075140042210348FFF779FE00BF05B05DF804FB84
:10752400707B0200844640EA010313F0030F18D174
:107534008446202A0BD32DE9F007B1E8F807A0E828
:10754400F807A2F12002202AF7D2BDE8F007042AA6
:1075540007D351F8043B40F8043BA2F10402042A87
:10756400F7D2002A05D011F8013B00F8013B013A9B
:10757400F9D16046704700BF00F1010110F0030F1C
:1075840011D010F8012B002A23D010F0030F0AD0D9
:1075940010F8012B002A1CD010F0030F03D010F8B0
:1075A400012B002A15D02DE970004FF001324FF065
:1075B400803350F8044BA4EB020525EA04051D4072
:1075C40000D1F6E7A0F1040070BC10F8012B002AEA
:0875D400FBD1A0EB01007047A0
:0875DC0021550200000000002F
:0875E4003D550200000000000B
:0875EC0049420200000000000A
:1075F400643A5C6E7266355F73646B31345C636FDE
:107604006D706F6E656E74735C64726976657273A7
:107614005F6E72665C68616C5C6E72665F677069EF
:107624006F2E6800443A5C6E5246355F53444B31CA
:10763400345C6578616D706C65735C7065726970DB
:10764400686572616C5C616772696C696E785F749D
:107654007261636B65725C6D61696E2E630000001C
:107664000000074100000000020000011F000000AC
:107674001F00000000004006070000000010014049
:10768400110004000040004000010000643A5C6EF8
:107694007266355F73646B31345C636F6D706F6EEB
:1076A400656E74735C647269766572735F6E72661C
:1076B4005C68616C5C6E72665F6770696F2E6800EF
:1076C400443A5C6E5246355F53444B31345C636FCD
:1076D4006D706F6E656E74735C626F617264735CFF
:1076E400626F617264732E6300000000443A5C6E42
:1076F4005246355F53444B31345C636F6D706F6E2B
:10770400656E74735C6C69627261726965735C75D1
:1077140074696C5C6170705F7574696C5F706C61C6
:1077240074666F726D2E6300443A5C6E5246355F28
:1077340053444B31345C636F6D706F6E656E74735C
:107744005C6C69627261726965735C65787065729C
:10775400696D656E74616C5F73656374696F6E5F88
:10776400766172735C6E72665F73656374696F6E63
:107774005F697465722E6300643A5C6E7266355F8D
:1077840073646B31345C636F6D706F6E656E7473AC
:107794005C6C69627261726965735C65787065724C
:1077A400696D656E74616C5F73656374696F6E5F38
:1077B400766172735C6E72665F73656374696F6E13
:1077C4005F697465722E6800443A5C6E5246355F98
:1077D40053444B31345C636F6D706F6E656E7473BC
:1077E4005C736F66746465766963655C636F6D6D05
:1077F4006F6E5C6E72665F7364682E6300000000D7
:1078040001000007EC750200F47502000800000096
:10781400643A5C6E7266355F73646B31345C636FBB
:107824006D706F6E656E74735C6C6962726172699F
:1078340065735C6578706572696D656E74616C5FA3
:1078440073656374696F6E5F766172735C6E726682
:107854005F73656374696F6E5F697465722E680027
:10786400443A5C6E5246355F53444B31345C636F2B
:107874006D706F6E656E74735C736F667464657639
:107884006963655C636F6D6D6F6E5C6E72665F736A
:1078940064685F736F632E6300000000DC75020090
:1078A400E47502000800000000100140110004000B
:1078B400443A5C6E5246355F53444B31345C6578D0
:1078C400616D706C65735C70657269706865726116
:1078D4006C5C616772696C696E785F747261636B0A
:1078E40065725C6966635F6C69625C7372635C6C2D
:1078F4006C5F6966635F7472616E73706F72745FDC
:107904006D63752E6300000003000001FFFFFFFF9D
:10791400FFFFFFFFFFFFFFFFFFFFFFFF000000006F
:10792400000000000000D60107010000643A5C6E0C
:107934007266355F73646B31345C636F6D706F6E48
:10794400656E74735C647269766572735F6E726679
:107954005C68616C5C6E72665F6770696F2E68004C
:10796400443A5C6E5246355F53444B31345C636F2A
:107974006D706F6E656E74735C6472697665727334
:107984005F6E72665C756172745C6E72665F64725F
:10799400765F756172742E6300000000443A5C6E79
:1079A4005246355F53444B31345C636F6D706F6E78
:1079B400656E74735C647269766572735F6E726609
:1079C4005C636F6D6D6F6E5C6E72665F6472765F22
:1079D400636F6D6D6F6E2E6300000000443A5C6E41
:1079E4005246355F53444B31345C636F6D706F6E38
:1079F400656E74735C647269766572735F6E7266C9
:107A04005C636C6F636B5C6E72665F6472765F63FB
:107A14006C6F636B2E630000643A5C6E7266355F54
:107A240073646B31345C636F6D706F6E656E747309
:107A34005C647269766572735F6E72665C68616CB1
:107A44005C6E72665F7274632E680000443A5C6E0A
:107A54005246355F53444B31345C636F6D706F6EC7
:107A6400656E74735C647269766572735F6E726658
:107A74005C7274635C6E72665F6472765F72746368
:107A84002E630000643A5C6E7266355F73646B311A
:107A9400345C636F6D706F6E656E74735C64726971
:107AA400766572735F6E72665C68616C5C6E72663A
:107AB4005F6770696F2E6800443A5C6E5246355FAA
:107AC40053444B31345C636F6D706F6E656E7473C9
:107AD4005C647269766572735F6E72665C67706906
:107AE4006F74655C6E72665F6472765F6770696FEF
:107AF40074652E6300000000643A5C6E7266355F44
:107B040073646B31345C636F6D706F6E656E747328
:107B14005C647269766572735F6E72665C68616CD0
:107B24005C6E72665F6770696F2E6800443A5C6EC3
:107B34005246355F53444B31345C636F6D706F6EE6
:107B4400656E74735C647269766572735F6E726677
:107B54005C7477695F6D61737465725C6E72665F85
:107B64006472765F7477692E630000000040004001
:107B74000001000024505542582C34302C474C4C02
:107B84002C302C302C302C302C302C302A35430D1A
:107B94000A202020202024505542582C34302C47D1
:107BA40053562C302C302C302C302C302C302A35A1
:107BB400390D0A202020202024505542582C3430DE
:107BC4002C4753412C302C302C302C302C302C3082
:107BD4002A34450D0A202020202024505542582CB8
:107BE40034302C4747412C302C302C302C302C3066
:107BF4002C302A35410D0A202020202024505542C3
:107C0400582C34302C5654472C302C302C302C30FB
:0A7C14002C302C302A35450D0A00F3
:0C7C20000090D003002000400000000095
:040000032000323D6A
:00000001FF
