:020000022000DC
:10300000000001203D32020095320200973202009A
:10301000993202009B3202009D3202000000000043
:103020000000000000000000000000009F320200CD
:10303000A132020000000000A3320200A53202000B
:10304000317A0200AB320200257502000DA40200A5
:10305000159C0200B3320200C9880200B732020098
:10306000B9320200BB320200BD320200BF320200A0
:10307000C1320200C3320200C5320200C732020070
:10308000C9320200E57F0200CD320200CF320200D9
:10309000D1320200D3320200E9530200D7320200DB
:1030A000D9320200DB320200DD320200DF320200E0
:1030B000E1320200E3320200A7320200A73202002E
:1030C000E5320200E7320200E9320200EB32020090
:0C30D000F97F0200EF320200F132020032
:1030DC00364937480A1A02D0072291438D463549A2
:1030EC0035480A1A06D00722914381F30988022237
:1030FC0082F3148831483249324A00F045F832489C
:10310C003249334A00F040F832483349334A00F030
:10311C003BF833483349344A00F036F833483449E5
:10312C00344A00F031F834483449354A00F02CF870
:10313C0034483549354A00F027F8354835490022DE
:10314C0000F02DF834483549002200F028F83448B6
:10315C003449091A082903DB00220260043001609B
:10316C00314A90471F482049884205D002680430F4
:10317C0003B4904703BCF7E700208646EC460020DA
:10318C0000212A4A9047FEE7884207D0521A05D000
:10319C00037801300B700131013AF9D17047884244
:1031AC0002D002700130FAE77047000000000120E5
:1031BC0000F80020000001200000012074C2020071
:1031CC00685600209C560020F4320200F4320200B3
:1031DC0054B9020074C202006856002068560020E0
:1031EC006CB902006CB902006CB902006CB9020037
:1031FC006CB902006CB902006CB902006CB9020027
:10320C0074C20200A8C202009C5600209C560020EA
:10321C009C560020CC5F0020CC5F0020D05F0020AB
:10322C00D05F0020D061002061320200253B0200FB
:10323C000F484FF00701884385460E4880470E48DB
:10324C00016841F470010160BFF34F8FBFF36F8FC2
:10325C00FFF73EBF09480A490A4A884207D0521A6A
:10326C0005D0037801300B700131013AF9D1704768
:10327C00000001203533020088ED00E06CB902003B
:10328C006856002068560020FEE7FEE7FEE7FEE7E2
:10329C00FEE7FEE7FEE7FEE7FEE7FEE7FEE7FEE7FA
:1032AC00FEE7FEE7FEE7FEE7FEE7FEE7FEE7FEE7EA
:1032BC00FEE7FEE7FEE7FEE7FEE7FEE7FEE7FEE7DA
:1032CC00FEE7FEE7FEE7FEE7FEE7FEE7FEE7FEE7CA
:1032DC00FEE7FEE7FEE7FEE7FEE7FEE7FEE7FEE7BA
:0832EC00FEE7FEE7FEE700BF6C
:1032F40000487047C45F0020BFF34F8F0549054B5A
:10330400DB6803F4E062044B1343CB60BFF34F8FDD
:1033140000BFFDE700ED00E00400FA05024B034A9C
:103324001A6000BF704700BF685600200090D003A9
:1033340008B500F05BF90346002B06D09A4A9B4B74
:103344001B681B0A03F01F03136000F07BF903469C
:10335400002B02D0964B974A1A6000F08FF903466F
:10336400002B06D0944A954B1B685B0B03F00703B4
:10337400136000F0AFF90346002B05D0904A904B40
:10338400DB6823F08073D36000F0C0F90346002BA0
:103394000ED04FF080430022C3F80C214FF080433D
:1033A4000022C3F810214FF080430022C3F83825CF
:1033B40000F0D8F90346002B02D0824B03221A6096
:1033C40000F0ECF90346002B0BD07F4B05221A606A
:1033D4007E4B01221A607E4B00221A607D4B3F22F5
:1033E4001A6000F0F7F90346002B76D07A4A4FF0C2
:1033F4008053D3F80434C2F82035774A4FF0805311
:10340400D3F80834C2F82435734A4FF08053D3F804
:103414000C34C2F82835704A4FF08053D3F8103476
:10342400C2F82C356C4A4FF08053D3F81434C2F8E8
:103434003035694A4FF08053D3F81834C2F8343524
:10344400654A4FF08053D3F81C34C2F84035624AC1
:103454004FF08053D3F82034C2F844355E4A4FF01D
:103464008053D3F82434C2F848355B4A4FF0805374
:10347400D3F82834C2F84C35574A4FF08053D3F868
:103484002C34C2F85035544A4FF08053D3F83034BA
:10349400C2F85435504A4FF08053D3F83434C2F84C
:1034A40060354D4A4FF08053D3F83834C2F8643550
:1034B400494A4FF08053D3F83C34C2F86835464A41
:1034C4004FF08053D3F84034C2F86C35424A4FF081
:1034D4008053D3F84434C2F8703500F097F90346AA
:1034E400002B05D03D4A3E4B1B6803F04F0313608D
:1034F40000F0B8F90346002B0DD04FF08043D3F809
:10350400003403F00103002B05D04FF080436FF02B
:103514000102C3F80024334A324BD3F8883043F411
:103524007003C2F88830BFF34F8FBFF36F8F4FF033
:103534001023D3F80032002B05DB4FF01023D3F80F
:103544000432002B2BDA284B0122C3F8042500BFD8
:10355400254BD3F80034002BFAD04FF0102315225A
:10356400C3F8002200BF204BD3F80034002BFAD05C
:103574004FF010231522C3F8042200BF1A4BD3F8CE
:103584000034002BFAD0184B0022C3F8042500BFE6
:10359400154BD3F80034002BFAD0FFF7ADFEFFF73C
:1035A400BDFE00BF08BD00BF40350140240300102C
:1035B40074C007400DF0ADBA3C0500404402001051
:1035C400F0ED00E0A0050040105600408856004091
:1035D400185600401456004000C00040E40E00405D
:1035E4005802001000ED00E000E00140124B1B689F
:1035F400DBB2062B1DD1114B1B6803F00F03002B0C
:1036040017D10F4B1B6803F0F003302B01D10123BA
:1036140010E00B4B1B6803F0F003402B01D1012396
:1036240008E0074B1B6803F0F003502B01D1012382
:1036340000E0002318467047E00F00F0E40F00F0AC
:10364400E80F00F00A4B1B68DBB2062B0DD1094BC7
:103654001B6803F00F03002B07D1074B1B6803F013
:10366400F003302B01D1012300E0002318467047FA
:10367400E00F00F0E40F00F0E80F00F0124B1B68BD
:10368400DBB2062B1DD1114B1B6803F00F03002B7B
:1036940017D10F4B1B6803F0F003302B01D101232A
:1036A40010E00B4B1B6803F0F003402B01D1012306
:1036B40008E0074B1B6803F0F003502B01D10123F2
:1036C40000E0002318467047E00F00F0E40F00F01C
:1036D400E80F00F00A4B1B68DBB2062B0DD1094B37
:1036E4001B6803F00F03002B07D1074B1B6803F083
:1036F400F003302B01D1012300E00023184670476A
:10370400E00F00F0E40F00F0E80F00F0124B1B682C
:10371400DBB2062B1DD1114B1B6803F00F03002BEA
:1037240017D10F4B1B6803F0F003302B01D1012399
:1037340010E00B4B1B6803F0F003402B01D1012375
:1037440008E0074B1B6803F0F003502B01D1012361
:1037540000E0002318467047E00F00F0E40F00F08B
:10376400E80F00F00A4B1B68DBB2062B0DD1094BA6
:103774001B6803F00F03002B07D1074B1B6803F0F2
:10378400F003302B01D1012300E0002318467047D9
:10379400E00F00F0E40F00F0E80F00F00A4B1B68A4
:1037A400DBB2062B0DD1094B1B6803F00F03002B72
:1037B40007D1074B1B6803F0F003302B01D1012321
:1037C40000E0002318467047E00F00F0E40F00F01B
:1037D400E80F00F00A4B1B68DBB2062B0DD1094B36
:1037E4001B6803F00F03002B07D1074B1B6803F082
:1037F400F003502B01D1012300E000231846704749
:10380400E00F00F0E40F00F0E80F00F0124B1B682B
:10381400DBB2062B1DD1114B1B6803F00F03002BE9
:1038240017D10F4B1B6803F0F003302B01D1012398
:1038340010E00B4B1B6803F0F003402B01D1012374
:1038440008E0074B1B6803F0F003502B01D1012360
:1038540000E0002318467047E00F00F0E40F00F08A
:10386400E80F00F0124B1B68DBB2062B1DD1114B85
:103874001B6803F00F03002B17D10F4B1B6803F0D9
:10388400F003302B01D1012310E00B4B1B6803F034
:10389400F003402B01D1012308E0074B1B6803F020
:1038A400F003502B01D1012300E000231846704798
:1038B400E00F00F0E40F00F0E80F00F084B0019096
:1038C400244B0393019B002B40D0234B1A6803998C
:1038D400019B00BF00BF00BF00BF00BF00BF00BF0F
:1038E40000BF8A422FD000BF00BF00BF00BF00BF8F
:1038F40000BF00BF00BF00BF00BF00BF00BF00BFCC
:1039040000BF00BF00BF00BF00BF00BF00BF00BFBB
:1039140000BF00BF00BF00BF00BF00BF00BF00BFAB
:1039240000BF00BF00BF00BF00BF00BF00BF00BF9B
:1039340000BF00BF00BF00BF00BF00BF00BF00BF8B
:1039440000BF00BF00BF013BC3D1019300BF04B05F
:10395400704700BF0024F4006856002000B583B00F
:103964000190019B4FF47A7202FB03F31846FFF7B0
:10397400A5FF00BF03B05DF804FB82B001900B46C5
:103984008DF803309DF80320019B13441A4601234C
:10399400136000BF02B0704700B583B00190019B73
:1039A4001B681F2B04D905494FF4E87001F069FC2A
:1039B4004FF0A043184603B05DF804FB6CB9020055
:1039C40000B585B00190084611461A4603468DF8A5
:1039D40003300B468DF8023013468DF8013001ABED
:1039E4001846FFF7D9FF0390019A9DF803109DF83C
:1039F40002305B0019439DF801309B0019439DF888
:103A040018301B0219439DF81C301B041943039BF7
:103A140002F5E07243F8221000BF05B05DF804FB24
:103A240000B585B003900023019300230093002385
:103A3400012201210398FFF7C3FF00BF05B05DF821
:103A440004FB00B585B003900B468DF80B309DF850
:103A54000B2000230193002300931346002200212E
:103A64000398FFF7ADFF00BF05B05DF804FB00B598
:103A740085B0019001AB1846FFF78EFF0390019BC0
:103A8400012202FA03F31946039800F035F800BF47
:103A940005B05DF804FB00B585B0019001AB184694
:103AA400FFF77AFF0390019B012202FA03F3194600
:103AB400039800F02BF800BF05B05DF804FB00B5D7
:103AC40085B0019001AB1846FFF766FF0390039899
:103AD40000F00AF80246019B22FA03F303F0010303
:103AE400184605B05DF804FB82B00190019BD3F841
:103AF4001035184602B0704782B001900091019BC6
:103B0400009AC3F8082500BF02B0704782B0019044
:103B14000091019B009AC3F80C2500BF02B07047C6
:103B240010B5C8B000238DF8163100238DF81F316D
:103B340000238DF81E313FAB00221A605A609A6050
:103B4400DA601A610DF10B0300221A7000238DF85C
:103B54001D3100238DF81C3100238DF81B31002307
:103B64008DF81A3100238DF8193100238DF81531A1
:103B740000238DF8143100238DF8183100238DF8BB
:103B8400173100F0B1FBB64B00211846FFF7F5FEE4
:103B940000F00EFFB34B1B78032B40F08880B24B30
:103BA4001B78002B40D13FAB14220021184607F0AC
:103BB4006BFEC0238DF8FC30DE238DF80F3106F048
:103BC400A3FC0346DBB28DF8FD3008238DF8FE30EC
:103BD40001AB184606F072FD01AB9B788DF8FF30FF
:103BE40001AB5B788DF8003101AB1B788DF80131A6
:103BF40001AB184606F0AEFD01AB5B788DF80231DF
:103C040001AB9B788DF8033101ABDB788DF804317F
:103C14003FAB0021184601F085F901238DF81A31D4
:103C2400914B01221A703FE03FAB14220021184649
:103C340007F02AFEC0238DF8FC30DE238DF80F3107
:103C440006F062FC0346DBB28DF8FD3010238DF8DC
:103C5400FE3001AB184606F031FD01AB9B788DF8C0
:103C6400FF3001AB5B788DF8003101AB1B788DF828
:103C7400013101AB184606F06DFD01AB5B788DF8A0
:103C8400023101AB9B788DF8033101ABDB788DF801
:103C940004313FAB0121184601F044F902238DF8A9
:103CA4001A31714B00221A706E4B00221A7000F008
:103CB400ADFC6D4B1B78012B40F0AC801D20FFF751
:103CC400EAFE6A4B1B78002B3CD0694806F038FFAB
:103CD40006F01AFC0346DAB2664B5A70654B9B78C1
:103CE40003F00103002B08D001238DF818311122B1
:103CF4005F49614807F09EFD02E000238DF818310A
:103D04005E4B1B7E9DF81E219A4204D29DF81E3103
:103D140001338DF81E319DF81831002B0FD0574B0D
:103D24001B7E9DF81E219A4209D0524BC0221A7064
:103D3400504BDE22DA7400214E4801F0F3F84B4B6D
:103D440000221A704D4B1B7E9DF81E219A425ED1B3
:103D54004B4B1B78032B49D14A4B24221A70494BF5
:103D640002225A709DF81831002B20D0454B1322A3
:103D74009A70444B0122DA703E4B9B7843F0200347
:103D8400DAB23C4B9A7012223F49404807F052FD88
:103D940016213C4800F0E2FD03461A46394B9A7559
:103DA40017238DF81F3101238DF8193110E0354B9D
:103DB40001229A70334B2322DA700421314800F037
:103DC400CDFD03461A462F4B1A7105238DF81F317A
:103DD4009DF81F319BB219462A4802F060F800236F
:103DE4008DF81F31264B04221A700DE09DF818310E
:103DF400002B09D01F4BC0221A701E4BDE22DA742E
:103E040000211C4801F08EF800238DF81E311D207E
:103E1400FFF72DFE1A4B1B78032B3BD10DF101024A
:103E24000DF102010DF10303184601F05EFF44ABEE
:103E340019464FF0FF3001F059FC0DF101031B78D6
:103E4400012B05D1124B00221A700D4B05221A705A
:103E54001E20FFF70CFE1C20FFF709FE20E000BF28
:103E640000100140925A0020935A00209E560020D0
:103E7400965A0020945A0020B15D0020945D0020E1
:103E84009C560020A0560020955A0020A4560020DD
:103E9400915A00201E20FFF7FEFD1C20FFF7FBFDBA
:103EA4009DF81A31002B31D0B44B1B78032B2DD144
:103EB400B34B24221A70B24B02225A70B04B132215
:103EC4009A70AF4B0122DA703FAB013312221946CC
:103ED400AC4807F0AFFC1621A94800F03FFD0346AB
:103EE4001A46A74B9A7517238DF81F319DF81F3179
:103EF4009BB21946A24801F0D2FF00238DF81F316E
:103F04009E4B04221A7000238DF81A319E4B1B78A5
:103F1400002B10D0994B1B78032B0CD19A4B1B7898
:103F24009BB21946994801F0BAFF974B00221A70C8
:103F3400924B04221A70964B1B78002B09D0954B98
:103F44001978914B914A944800F088FD904B0022D7
:103F54001A709DF81731032B22D0904B1B78002B3D
:103F64001ED08E4B1B78022B14D19DF81931002BD7
:103F740010D08B4BC0221A70894BDE22DA74884B26
:103F84009B7823F02003DAB2854B9A700021844891
:103F940000F0C8FF00238DF81931804B00221A70FD
:103FA4009DF81731042B00F22A8101A252F823F064
:103FB400C93F0200F73F0200ED4002002F4102001A
:103FC40003420200774B1B78002B00F01381764BE1
:103FD4001B68FF2B05D0754B5A69734B1B689A42BB
:103FE40003D2724B5B69704A136001238DF8173159
:103FF40000E16D4B1B68002B6CD00DF10B0103AB82
:104004000022184606F078FC0DF10B031B78002BF8
:1040140056D0674B24221A70654B02225A700DF158
:104024000B031A78624BDA7004238DF81D310023D8
:104034008DF81C311AE09DF81D315D4A98189DF8E1
:104044001C2103A913469B0013449B000B4401331A
:104054001222194607F0EEFB9DF81D3112338DF83C
:104064001D319DF81C3101338DF81C310DF10B030A
:104074001B789DF81C219A42DDD39DF81D31033B2A
:10408400DAB24B4B9A709DF81D419DF81D311946CB
:10409400474800F063FC03461A46454B1A559DF801
:1040A4001D3101338DF81D310DF10B039DF81D21D8
:1040B4001A7002238DF8173100238DF81B319EE00E
:1040C400384B00221A7000238DF81731394B002227
:1040D4001A7094E0334B00221A7000238DF81731C4
:1040E400344B00221A708AE0324B1B78002B12D119
:1040F400224B1B78032B7FD10DF10B031B789BB252
:1041040019462B4801F0CBFE1C4B04221A700323E2
:104114008DF8173170E0234B00221A7000238DF8BC
:104124001731244B00221A7066E01C4B1B78002BBD
:1041340064D01A4B1B78012B3ED10DF10B0103AB5C
:104144000122184606F0D8FB0DF10B0300221A7069
:10415400154B1B68013B144A136001238DF817317A
:10416400144B1B78002B41D00E4B00221A70114BBC
:1041740000221A7000238DF8173137E09C56002076
:10418400A0560020A45600208F5A002098580020E2
:10419400915A00208E5A00209C570020905A0020EB
:1041A400945A0020A85A0020AC5A0020945D0020A4
:1041B40094590020A95A00201F4B1B78022B15D1BB
:1041C4009DF81B3101338DF81B319DF81B31022BF7
:1041D40009D11A4B00221A70194B00221A700023BD
:1041E4008DF8173102E002238DF81731124B0022AB
:1041F4001A7003E000BF02E000BF00E000BF00F05F
:1042040055FE104B1B78002B05D10F4B1B78032B4D
:1042140001D1012300E000238DF814310B4B1B78EE
:10422400002B01D100F0B0FE9DF81431002B3FF4B7
:10423400AFAC00F00DFCABE4905A0020A85A00206B
:10424400A95A0020925A00209C560020935A00201C
:1042540000B583B003468DF807309DF80730002B76
:104264000FD10A4B08211846FFF787FB084B1B7830
:104274001A4601230021074803F088FD064B01225A
:104284001A7000BF03B05DF804FB00BF00100140CA
:104294006C5600200CBA02009E56002000B583B074
:1042A40003468DF807309DF80730002B0CD1084BDE
:1042B40008211846FFF761FB054B04211846FFF758
:1042C4005CFB044B01221A7000BF03B05DF804FBD1
:1042D400004002409F56002082B001900B468DF8AA
:1042E400033000BF02B0704708B500F049F800F091
:1042F40061F801F09BFE00F0C9F800F0EDF800F061
:1043040027F900F04FF906F0DFF84FF47A70FFF761
:1043140025FB06F0C9FB0520FFF782FB1E20FFF7F3
:10432400A6FB1E20FFF77CFB1D20FFF7A0FB1D2032
:10433400FFF776FB1C20FFF79AFB1C20FFF770FBAE
:104344001D20FFF794FB1D20FFF76AFB0420FFF7F5
:10435400A2FB0420FFF764FB00210820FFF771FB98
:1043640000210D20FFF76DFB00210B20FFF769FBF7
:104374000420FFF77CFB06F02DFA00BF08BD000007
:1043840000B583B003F042FA0190019B0093009BB7
:10439400002B05D0064A4FF42371009800F017FE55
:1043A400002003F08DFA00BF03B05DF804FB00BFEA
:1043B400A0B9020000B587B02B4A01AB92E8030014
:1043C40018600433198040F6FF73ADF8043001AB74
:1043D400264A1946264803F043FC0590059B04939E
:1043E400049B002B05D0234A40F29921049800F045
:1043F400EEFD1F4803F0A0FC1F4B04211846FFF7F5
:10440400BCFA1D4B08211846FFF7B7FA1B4B1B7863
:104414001A4601230021164803F0B8FC2023ADF806
:10442400043001AB164A1946164803F019FC0590EE
:10443400059B0393039B002B05D00E4A40F2A62153
:10444400039800F0C4FD0F4803F076FC0E4B0421E2
:104454001846FFF792FA0C4B08211846FFF78DFA1D
:1044640000BF07B05DF804FBDCB90200554202004E
:104474000CBA0200A0B90200001001406C560020E2
:10448400A142020014BA02000040024000B585B007
:104494000E4B1B68019301AB0D4A19460B2004F027
:1044A400E9F80390039B0293029B002B05D0094A71
:1044B40040F2B621029800F08AFD01210B2004F09D
:1044C4003DF900BF05B05DF804FB00BFE4B902008C
:1044D400DD420200A0B9020000B585B0194B1B688B
:1044E40000936B46184A1946082004F0C3F8039059
:1044F400039B0293029B002B05D0144A40F2C32174
:10450400029800F064FD0121082004F017F96B46BD
:104514000D4A19460D2004F0ADF80390039B019356
:10452400019B002B05D0094A40F2C721019800F0F5
:104534004EFD01210D2004F001F900BF05B05DF826
:1045440004FB00BFE8B90200DD420200A0B902008A
:1045540010B586B0104B6C460FCB84E80F001A23BD
:104564000093192301936946002300220B4804F0A9
:104574009DFE0590059B0493049B002B05D0084ADF
:104584004FF43571049800F022FD044804F01AFF3A
:1045940000BF06B010BD00BFECB902001CBA020097
:1045A400A0B9020010B586B0154B6C460FCB84E859
:1045B4000F001F238DF802300F238DF801301123D3
:1045C4008DF800304FF08063029369460023002287
:1045D4000C4805F077FC05901320FFF748FA1320E8
:1045E400FFF71EFA059B0493049B002B05D0064A93
:1045F4004FF43A71049800F0EAFC00BF06B010BD15
:10460400FCB9020024BA0200A0B9020000B58DB0C2
:10461400B74B1B78072B00F2868101A252F823F0D6
:10462400454602008F460200D94602002B4902008B
:104634004F47020013480200AD480200C54802007B
:104644000520FFF728FA6420FFF788F90520FFF713
:104654000EFAA74B06221A70A64B01221A70A64B1B
:1046640000221A70A54B00221A70A54B00221A7062
:1046740001234FF4FA620021A24803F087FBA24B06
:1046840000211846FFF779F94DE1022001F010F8F6
:104694000346002B02DA964B07221A70032000F01F
:1046A400E9FF0346002B11DB984B18680F23012206
:1046B400974901F0E0FA0346002B03DB8C4B0222FE
:1046C4001A7030E18A4B07221A702CE1884B0722BA
:1046D4001A7028E16B46184601F070FB0346002B64
:1046E4002DDB9DF81730012B06D0022B00D02BE0D8
:1046F4007F4B03221A7027E00DF12E0300220021C4
:10470400184601F0F2FA0346002B14DB9DF92E3013
:10471400022B18D10DF12F03184601F039FB9DF837
:104724002F30002B03D0724B03221A700BE0704B16
:1047340007221A7007E06E4B07221A7003E06C4BD5
:1047440007221A70EFE000BFEDE00DF12D010DF12D
:104754002E030022184601F0C8FA0346002B47DB5B
:104764009DF92E30012B20D19DF92D30012B4CD0F9
:10477400022B03D0B3F1FF3F0AD0B7E05F4B002216
:104784001A70644B01221A70594B03221A703DE0CF
:104794005A4B1B780133DAB2584B1A705D4B022224
:1047A4001A70534B03221A7030E09DF92E30022BFD
:1047B4000CD1524B1B780133DAB2504B1A70554B63
:1047C40002221A704A4B03221A708FE09DF92E3090
:1047D400032B00F08B80494B1B780133DAB2474B33
:1047E4001A704C4B02221A70414B07221A707DE05A
:1047F400424B1B780133DAB2404B1A70454B02220C
:104804001A703B4B07221A7070E000BF6EE00BAACF
:104814000DF12E030021184601F067FA0346002B20
:1048240035DB9DF82C30002B03D1314B03221A7059
:1048340079E09DF82C30012B1CD10023002236494D
:10484400364801F0D8FA0346002B06DB2A4B002237
:104854001A70334B01221A7008E0314B02221A708D
:10486400254B1B780133DAB2234B1A70204B0322F9
:104874001A7058E0204B1B780133DAB21E4B1A70C1
:10488400274B02221A701A4B07221A704BE01A4B5C
:104894001B780133DAB2184B1A70214B02221A70BA
:1048A400134B07221A703EE0154B1B78002B39D0AE
:1048B400134B00221A700F4B1A780D4B1A7031E00B
:1048C4000B4B06221A700B4B00221A700C4B002261
:1048D4001A70012341F2883200210A4803F056FA83
:1048E400094B00211846FFF748F81CE000BF1AE006
:1048F4009C5600209D560020A05B0020A15B002058
:104904009F56002014BA0200004002407056002056
:1049140074560020905A00208E5A00209C57002084
:10492400915A002000BF0A4B1B78052B03D8094B72
:104934001B78052B08D9084B07221A70044B002258
:104944001A70044B00221A7000BF0DB05DF804FB0E
:10495400A15B0020A05B00209C56002084B0019045
:104964000B468DF8033000238DF80F3000238DF8AB
:104974000E3000238DF80F300EE09DF80F30019AB1
:1049840013441A789DF80E3013448DF80E309DF8B8
:104994000F3001338DF80F309DF80F209DF8033050
:1049A4009A42EAD39DF80E30184604B070470000CE
:1049B40008B5254B1B78012B11D0022B2DD0002BD1
:1049C40000D03FE00B20FFF77AF80346002B34D1E8
:1049D4001D4B01221A701D4B00221A802DE0052068
:1049E400FEF7BCFF0B20FFF76AF80346002B10D13B
:1049F400164B1B8801339AB2144B1A80134B1B8835
:104A0400052B1CD11D20FFF746F80F4B02221A700C
:104A140015E00D4B00221A7011E00520FEF79EFFF1
:104A24000B20FFF74CF80346002B0AD0064B032259
:104A34001A701D20FFF71BF803E000BF02E000BF5F
:104A440000E000BF00BF08BD925A0020A25B002016
:104A540020BF40BF20BF00BF7047000010B58AB020
:104A64000390019200930B468DF80B3000238DF8D0
:104A7400263000238DF8253000238DF824300023C0
:104A84008DF82730009B00221A70039B1B78242B7F
:104A940040F007829DF80B30013BDBB219460398C6
:104AA400FFF75CFF03468DF826309DF80B30013B81
:104AB400039A13441B789DF826209A4240F0F18112
:104AC400039B9B788DF82430039B01331B78013BB7
:104AD400042B00F2DF8101A252F823F0F54A020010
:104AE400294C0200974C02004F4D0200994E0200DF
:104AF4009DF82430012B40F0CF81039B03331B78B6
:104B0400AB2B40F0C981019B24221A70019B013315
:104B140001221A7003238DF827309DF827305A1C80
:104B24008DF827201A46019B1344B84A12781A704C
:104B34009DF827305A1C8DF827201A46019B9C1893
:104B440005F0E2FC0346DBB223700820FEF7B7FF52
:104B54000346002B0AD09DF827305A1C8DF82720D5
:104B64001A46019B134400221A7011E09DF8273065
:104B74005A1C8DF827201A46019B9C180D20FEF71D
:104B84009EFF0346002B0CBF01230023DBB22370DE
:104B94009F4B5B7F03F00103002B0ED09DF8273061
:104BA400019A134411229B49184606F043FE9DF8CE
:104BB400273011338DF8273009E09DF827305A1C2F
:104BC4008DF827201A46019B134423221A709DF85E
:104BD4002730019A134404228F49184606F02AFE0E
:104BE4009DF8273004338DF82730019B02339DF85C
:104BF4002720033AD2B21A709DF82730019AD418AC
:104C04009DF8273019460198FFF7A8FE0346237044
:104C14009DF8273001338DF82730009B9DF827201D
:104C24001A7039E19DF82430012B40F037817B4B19
:104C34001B78002B23D0039B03331B78FE2B03D15B
:104C4400774B01221A7029E1019B24221A70019BDF
:104C5400013302221A70019B023301221A70019B54
:104C64000333BB221A70019B1C1D04210198FFF71A
:104C740075FE03462370009B05221A700EE1674BF4
:104C840001221A70039B03331B781A46654B1A6082
:104C940004E1019B24221A70019B013303221A7040
:104CA400039B03331B78022B00D04DE0039B04339A
:104CB4001B78022B47D9039B04331B78F02B42D873
:104CC400039B1A79524B1A7605F0C0FD03238DF825
:104CD40027309DF827305A1C8DF827201A46019B4F
:104CE400134402221A709DF827305A1C8DF827208D
:104CF4001A46019B13444F221A709DF827305A1C00
:104D04008DF827201A46019B13444B221A70019BED
:104D140002339DF82720033AD2B21A709DF8273047
:104D2400019AD4189DF8273019460198FFF716FE0A
:104D3400034623709DF8273001338DF82730009BFC
:104D44009DF827201A7000BFABE09DF82430012B9A
:104D540040F0A680019B24221A70019B0133042297
:104D64001A70039B03331B78012B02D0022B5BD0F8
:104D740096E003238DF827309DF827305A1C8DF8D0
:104D840027201A46019B134401221A7004AB1846CB
:104D940005F0D6FE9DF8103003F00103002B0ED071
:104DA4009DF82730019A134404A91122184606F0ED
:104DB40041FD9DF8273011338DF8273009E09DF827
:104DC40027305A1C8DF827201A46019B13442322AE
:104DD4001A70019B02339DF82720033AD2B21A704D
:104DE4009DF82730019AD4189DF827301946019868
:104DF400FFF7B4FD034623709DF8273001338DF887
:104E04002730009B9DF827201A7042E0935A002017
:104E1400945D0020B15D0020A85D0020A85A002008
:104E2400A95A0020AC5A002003238DF827309DF89E
:104E340027305A1C8DF827201A46019B134402225E
:104E44001A709DF827305A1C8DF827201A46019BAA
:104E54001344154A127E1A70019B02339DF82720D1
:104E6400033AD2B21A709DF82730019AD4189DF8EB
:104E7400273019460198FFF771FD034623709DF80A
:104E8400273001338DF82730009B9DF827201A70B6
:104E940000BF05E000BF04E000BF02E000BF00E087
:104EA40000BF00BF0AB010BD945D002000B583B000
:104EB4001B4B9B7803F00103002B2CD001AB18464D
:104EC40005F0FCFB9DF80520154B1B799A4222D076
:104ED400134B5B798DF80430114B1B798DF8053039
:104EE4000F4BDB788DF8063001AB184605F00AFC51
:104EF40001238DF804300A4B9B798DF80530084B5B
:104F0400DB798DF80630064B1B7A8DF8073001AB40
:104F1400184605F03BFC00BF03B05DF804FB00BF7E
:104F2400945A002000B583B001900B468DF80330ED
:104F3400134B1B785A1CD1B2114A11701A461346EE
:104F44009B0013449B000F4A1344142201991846F2
:104F540006F070FC0A4B1B780C2B03D09DF8033031
:104F6400002B08D0064B1B781946064805F07EFC3A
:104F7400034B00221A7000BF03B05DF804FB00BFAE
:104F8400A45B0020B05A002008B50820FEF797FD66
:104F94000346002B06D01D20FEF769FD1E20FEF7F8
:104FA40066FD12E00D20FEF78AFD0346002B06D0B5
:104FB4001E20FEF75CFD1D20FEF76DFD05E01D20A3
:104FC400FEF755FD1E20FEF766FD00BF08BD00B5C7
:104FD40089B0039002910192029B9BB2ADF8143008
:104FE400019B0693039B079305AB1A46002144F2E9
:104FF400010000F051F800BF09B05DF804FB0000A7
:1050040086B003900291019201238DF817309DF828
:105014001730204A039B13601E4A029B53601D4AAB
:10502400019B9360039B44F20102934212D044F229
:105034000202934222D1019B164AD360154BDB68CE
:105044001B881A46134B9A61124BDB685B68114A42
:10505400D36113E0019B0F4A13610E4B1B699B68DC
:105064000C4A53610B4B1B691B881A46094B9A6106
:10507400084B1B695B68074AD36100BF72B600BF67
:105084009DF81730DBB2002BFAD162B600BF06B030
:10509400704700BFA85B002000B587B00390029161
:1050A4000192039B41F20102934215D041F20102A5
:1050B400934202D8012B11D011E044F20102934231
:1050C40007D044F20202934200D008E0019B05930A
:1050D40005E0019B049302E000BF00E000BF084B21
:1050E4001B6803F00103002B00D0FFDE019A029934
:1050F4000398FFF785FF00BF07B05DF804FB00BF0E
:10510400F0ED00E082B0EFF310830093009B019375
:1051140072B6019B184602B0704762B600BF704772
:1051240000B585B00190FFF7EDFF0390164B9B6827
:10513400002B1BD1144B01229A60144BD3F880200E
:10514400134B1340104A1360104B114AC3F88020CC
:105154000E4BD3F884300C4A53600C4B4FF0FF32A3
:10516400C3F88420019B00221A7002E0019B0122F3
:105174001A70039B002B01D1FFF7CFFF00231846C1
:1051840005B05DF804FB00BFC85B002000E100E04F
:10519400FC06FFBD00B585B003468DF80730104B03
:1051A4009B68002B16D09DF80730002B12D1FFF717
:1051B400A9FF03900B4A0A4B1B681360094A084B6A
:1051C4005B685360064B00229A60039B002B01D15D
:1051D400FFF7A3FF0023184605B05DF804FB00BFEA
:1051E400C85B002000E100E000B583B0019000F04E
:1051F4002BF80346012B03D00549432000F041F866
:105204000198FFF78DFF00BF03B05DF804FB00BFFA
:105214002CBA020000B583B003468DF8073000F0C5
:1052240013F80346012B03D00649512000F029F856
:105234009DF807301846FFF7ADFF00BF03B05DF8D7
:1052440004FB00BF2CBA020084B0EFF30583019382
:10525400019BC3F308030393039B002B0DD1EFF3CE
:1052640014830093009B0293029B03F00103002B21
:105274000CBF01230023DBB200E00123184604B075
:10528400704700B585B003460091ADF80630BDF80F
:105294000630ADF80830009B039302AB1A46002198
:1052A40044F20200FFF7F8FE00BF05B05DF804FB0E
:1052B40000B583B001900091019B002B03D11049EC
:1052C4005020FFF7DEFF009B002B03D10C49512037
:1052D400FFF7D7FF019B009A1A60019B1B681A68AD
:1052E400019B5A60019B5A68019B1B685B689A4248
:1052F40002D1019B00225A6000BF03B05DF804FB99
:1053040068BA020000B583B00190019B002B03D161
:1053140014496320FFF7B5FF019B1B68002B03D1E1
:1053240010496420FFF7ADFF019B5B68002B14D08C
:10533400019B5B681A46019B1B689B6813441A46D1
:10534400019B5A60019B5A68019B1B685B689A42E7
:1053540004D1019B00225A6000E000BF03B05DF855
:1053640004FB00BF68BA020000B583B00190019B42
:10537400002B03D10449C420FFF783FF019B5B6822
:10538400184603B05DF804FBB8BA0200014B1B7861
:1053940018467047D45B002000B585B06B461049B1
:1053A4001846FFF785FF10E06B461846FFF7DCFF51
:1053B4000390039B1B680293039B5A68029B10464D
:1053C40098476B461846FFF79DFF6B461846FFF754
:1053D400CBFF0346002BE7D100BF05B05DF804FB0B
:1053E40044BB020008B5FFF7D7FF00BF08BD0000AB
:1053F40000B583B00190019B002B03D10449C42064
:10540400FFF73FFF019B5B68184603B05DF804FBA0
:1054140050BB020048DF704700BF184600B589B092
:10542400019004AB1846FFF7F5FF0790079B002B8C
:1054340003D0079B052B20D124E002AB1349184667
:10544400FFF736FF11E002AB1846FFF7D1FF0690D5
:10545400069B1B680593049A069B5968059B104696
:10546400984702AB1846FFF74DFF02AB1846FFF70B
:10547400BFFF0346002BE6D1D3E7054A6B2107980B
:10548400FFF7A5FD00BF09B05DF804FBDCBB02001B
:10549400A0BB020082B00190019B1B68591C019AB9
:1054A40011601B78184602B0704710B582B00190A5
:1054B4000198FFF7EFFF03461B021CB20198FFF7A8
:1054C400E9FF03461BB223431BB29BB2184602B04A
:1054D40010BD10B582B001900198FFF7E6FF0346B6
:1054E4001C040198FFF7E1FF03462343184602B06A
:1054F40010BD30B583B001900198FFF7EAFF034671
:105504001A464FF00003150000240198FFF7E1FF4D
:1055140003461A464FF0000344EA020045EA030139
:1055240003460C461846214603B030BD10B584B07E
:1055340001900091019B039303AB1846FFF7C9FF49
:105544000246009B1A6003AB1846FFF7C2FF0246EF
:10555400009B5A6003AB1846FFF79CFF03465AB200
:10556400009B1A7203AB1846FFF7B3FF0246009B79
:10557400DA6003AB1846FFF7ACFF0246009B1A61E2
:1055840003AB1846FFF791FF03461AB2009B9A82B9
:1055940003AB1846FFF77EFF03465AB2009B9A7589
:1055A40003AB1846FFF776FF03461A46009BDA75ED
:1055B40003AB1846FFF76EFF03461A46009B1A76A4
:1055C40003AB1846FFF795FF03460C46009AC2E961
:1055D400083400BF04B010BD00B587B00291019338
:1055E40003468DF80F301346ADF80C30029B002BA8
:1055F40003D0BDF80C30002B06D0029B002B06D143
:10560400BDF80C30002B02D06FF064032BE0019B3B
:10561400002B03D0BDF82030002B06D0019B002BBB
:1056240006D1BDF82030002B02D06FF064031AE0DD
:105634000F4B1B68D9B2BDF80C309DF80F00029ACD
:1056440000F09CF80A4B1B68D9B2BDF820309DF8D5
:105654000F00019A00F022F90590054B1B680133F5
:10566400034A1360059B184607B05DF804FB00BFAE
:10567400D85B002000B587B003468DF80F309DF845
:105684000F30042B02D96FF064030DE09DF80F3046
:105694008DF817300DF11701002300930023012228
:1056A4004620FFF799FF0346184607B05DF804FB50
:1056B40000B585B003468DF80F309DF80F30012BEF
:1056C40003D09DF80F30022B0AD10DF10F010023F6
:1056D4000093002301227220FFF77EFF034601E0BE
:1056E4006FF06403184605B05DF804FB00B589B09B
:1056F4000390029100230493039B1B0EDBB28DF8ED
:105704001430039B1B0CDBB28DF81530039B1B0A72
:10571400DBB28DF81630039BDBB28DF8173004AA88
:1057240005A904230093134604220F20FFF754FF16
:105734000790079B002B1CDD002306939DF8103077
:105744001B06069A134306939DF811301B04069A10
:10575400134306939DF812301B02069A13430693D3
:105764009DF813301A46069B13430693029B069A30
:105774001A60079B184609B05DF804FB00B589B0B0
:1057840000921A4603468DF807300B468DF8063012
:105794001346ADF804300023ADF81E300023ADF8F5
:1057A4001C300EE0BDF81E305A1CADF81E2008AAAD
:1057B4001344FF2203F8102CBDF81C300133ADF85C
:1057C4001C30BDF81C30032BECD9BDF81E305A1C1C
:1057D400ADF81E2008AA1344C42203F8102CBDF807
:1057E4001E305A1CADF81E2008AA13449DF8072049
:1057F40003F8102CBDF81E305A1CADF81E2008AA60
:1058040013449DF8062003F8102CBDF81E305A1CD2
:10581400ADF81E201946BDF804301B0A9BB2DAB25B
:1058240008AB0B4403F8102CBDF81E305A1CADF81D
:105834001E20BDF80420D2B208A90B4403F8102C92
:1058440004A80430BDF80430009A052100F0EDF8F6
:105854000346ADF81A3004AB0921184600F022FCC7
:10586400009B002B05D0BDF804301946009800F0C9
:1058740019FCBDF81A301B0A9BB2DBB28DF80C3050
:10588400BDF81A30DBB28DF80D3003AB0221184697
:1058940000F008FC00BF09B05DF804FB00B58BB054
:1058A40000921A4603468DF807300B468DF80630F1
:1058B4001346ADF8043000238DF80F30002309930C
:1058C40000F010FC04AB06220021184605F0DCFFB2
:1058D4000DF10F030121184600F048FC0890089BC5
:1058E400002B05DA0023ADF804306FF0690398E06B
:1058F4009DF80F30C42BEBD1089B002B02DA6FF01C
:105904006B038EE00023ADF81E30BDF81E305A1C28
:10591400ADF81E200AAA1344C42203F8182C04ABC1
:1059240001330521184600F021FC0890089B002B48
:1059340002DA6FF06C0374E09DF815309AB29DF8AA
:1059440014309BB21B029BB21344ADF81C309DF87B
:1059540011309DF807209A4202D06FF06803099332
:105964009DF812309DF806209A4202D06FF066032B
:1059740009939DF81330002B03D09DF813305B423C
:105984000993BDF81C20BDF804309A420CD90DF1DE
:105994000B030121184600F0E9FB0690069B002B3F
:1059A400F5D06FF06A033CE0BDF81C20BDF804306C
:1059B4009A4203D2BDF81C30ADF80430099B002B89
:1059C4000CD1009B002B09D0BDF80430002B05D06E
:1059D400BDF804301946009800F0C8FB03AB02215F
:1059E400184600F0C3FBBDF8043004A8009A062151
:1059F40000F01BF80346ADF816309DF80C301B027E
:105A04009DF80D201A44BDF816309A4202D06FF06A
:105A1400670306E0099B002B02D1BDF8043000E0C7
:105A2400099B18460BB05DF804FB86B00390019205
:105A34001A460B46ADF80A301346ADF80830002379
:105A4400ADF816300023ADF8143040E0BDF8163040
:105A54001B0A9BB21AB2BDF816301B021BB21343C9
:105A64001BB2ADF81630BDF81430039A13441B78FA
:105A74009AB2BDF816305340ADF81630BDF8163062
:105A84001B111BB203F00F031AB2BDF916305340B9
:105A94001BB2ADF81630BDF816301B031AB2BDF9AF
:105AA400163053401BB2ADF81630BDF816305B010A
:105AB4001BB203F4FF531AB2BDF9163053401BB2A4
:105AC400ADF81630BDF814300133ADF81430BDF81C
:105AD4001420BDF80A309A42B8D30023ADF814302C
:105AE40040E0BDF816301B0A9BB21AB2BDF816305E
:105AF4001B021BB213431BB2ADF81630BDF81430B1
:105B0400019A13441B789AB2BDF816305340ADF88D
:105B14001630BDF816301B111BB203F00F031AB276
:105B2400BDF9163053401BB2ADF81630BDF816302F
:105B34001B031AB2BDF9163053401BB2ADF8163030
:105B4400BDF816305B011BB203F4FF531AB2BDF962
:105B5400163053401BB2ADF81630BDF81430013383
:105B6400ADF81430BDF81420BDF808309A42B8D30B
:105B7400BDF81630184606B0704700B587B00390DC
:105B8400039BB3F1FF3F1CD0039B1B0EDBB28DF8CC
:105B94001430039B1B0CDBB28DF81530039B1B0ADE
:105BA400DBB28DF81630039BDBB28DF8173005A9F4
:105BB40000230093002304227420FFF70DFD034605
:105BC40001E06FF06403184607B05DF804FB00B50C
:105BD40085B003900B468DF80B30039B002B02D14C
:105BE4006FF064030FE09DF80B300A2B02D06FF0C6
:105BF400640308E00023009300230A2203997C2015
:105C0400FFF7EAFC0346184605B05DF804FB00B54F
:105C140085B003468DF80F309DF80F30032B02D961
:105C24006FF0640309E00DF10F01002300930023DA
:105C340001226E20FFF7D0FC0346184605B05DF83C
:105C440004FB00B585B003468DF80F309DF80F3086
:105C54000F2B02D96FF0640309E00DF10F0100234B
:105C64000093002301227020FFF7B6FC0346184678
:105C740005B05DF804FB00B587B0039002911146AE
:105C84001A460B468DF8073013468DF806300398F4
:105C9400FFF773FF0590059B002B01DA059B20E0BD
:105CA4000A210298FFF793FF0590059B002B01DA68
:105CB400059B16E09DF807301846FFF7A8FF0590EE
:105CC400059B002B01DA059B0BE09DF80630184676
:105CD400FFF7B7FF0590059B002B01DA059B00E059
:105CE400059B184607B05DF804FB00B589B0059024
:105CF4000491039200230793059B002B14D00DF10C
:105D04001B02012300931346002200210220FFF707
:105D140063FC0790079B002B01DA079B34E09DF896
:105D24001B305AB2059B1A70049B002B14D00DF142
:105D34001A02012300931346002200210320FFF7D7
:105D44004BFC0790079B002B01DA079B1CE09DF896
:105D54001A305AB2049B1A70039B002B13D00DF116
:105D64001902012300931346002200210420FFF7A7
:105D740033FC0790079B002B01DA079B04E09DF896
:105D84001920039B1A70079B184609B05DF804FBA1
:105D940000B585B00390039B002B02D16FF0640320
:105DA40008E001230093039B002200217E20FFF7DB
:105DB40013FC0346184605B05DF804FB00B58FB02C
:105DC4000390039B002B02D16FF064030FE005AA3C
:105DD4001E2300931346002200217620FFF7FCFBCC
:105DE4000D9005AB03991846FFF7A0FB0D9B1846D1
:105DF4000FB05DF804FB00B589B0059004910392DF
:105E0400029300238DF8183000238DF81930059B78
:105E1400002B02D0049B002B02D16FF064033AE004
:105E240006A983230093059B02222920FFF7D4FBB4
:105E34000790079B002B04DA049B00221A70079B2F
:105E440029E0079BDBB2033BDAB2049B1A70039B85
:105E5400002B10D0039B00221A80059B1B789AB25A
:105E6400059B01331B789BB21B029BB213449BB26C
:105E74001AB2039B1A80029B002B03D0059B9A78CD
:105E8400029B1A70059BD91C049B1B781A46059823
:105E940005F0C9FB0023184609B05DF804FB00B502
:105EA40085B003900B46ADF80A30039B002B03D05A
:105EB400BDF80A30002B02D16FF0640309E0BDF88D
:105EC4000A2000230093002303995A20FFF784FB40
:105ED4000346184605B05DF804FB82B001900B46FA
:105EE4008DF803309DF80320019B1344184602B03B
:105EF400704782B001900B468DF803309DF8032063
:105F0400019B13441A460123136000BF02B070477B
:105F140000B583B001900B468DF80330019B1B68DC
:105F24009DF8032011461846FFF7D7FF034618468D
:105F340003B05DF804FB000030B589B0374B1B6833
:105F440000930023079302F0CBFE0790079B069370
:105F5400069B002B04D0324A1F210698FFF737F81E
:105F640002F040FB0790079B0593059B002B04D090
:105F74002B4A22210598FFF72AF86B46002219467E
:105F8400022002F077FB0790079B0493049B002BED
:105F940004D0234A25210498FFF719F8214802F078
:105FA400B3FE0790079B0393039B002B04D01C4A6A
:105FB40029210398FFF70BF81A4B1C78022002F0F2
:105FC40045FC054608211848FFF7A2FF03461A4678
:105FD4002946204602F0F2FE0790079B0293029B9B
:105FE400002B04D00E4A2F210298FEF7F0FF0D4B30
:105FF4001B78184602F01DFF0790079B0193019B35
:10600400002B04D0064A32210198FEF7E0FF01215B
:10601400022002F093FB00BF09B030BD48BC02006F
:10602400F0BB0200AA5C0020E8BB020030B58BB0D4
:106034000C4B01AC1D460FCD0FC495E80F0084E84E
:106044000F00022302930323019301AB064A19466E
:10605400064800F057FC0990FFF76EFF00BF0BB035
:1060640030BD00BF4CBC02007560020080560020A9
:1060740082B001900091019B1B78002B03D1074B48
:1060840000221A7006E0019B1B78012B02D1044BFD
:1060940001221A7000BF02B0704700BFDC5B002011
:1060A400DD5B002000B585B001900B46ADF80230F1
:1060B4000A4B01221A70BDF80230DBB21A4601996C
:1060C400074800F065FD039000BF044B1B78002BCC
:1060D400FBD10023184605B05DF804FBDC5B00200F
:1060E4008056002000B583B0184B00221A70184B5C
:1060F40000221A70C8221749174800F053FF019074
:10610400012332220021154801F040FE144B0021E6
:106114001846FFF7EEFE00BF0D4B1B78002BFBD09B
:106124000D4801F03DF800BF084B1B78002BFBD055
:106134000C4B00221A70084B1B68D3F83C35DAB2BA
:10614400094B1A7000BF03B05DF804FBDD5B00204F
:106154009F560020E05B002080560020E8BB020030
:1061640000400240A85C0020A95C002084B001909B
:106174000B46ADF8023000238DF80F30184B1B7816
:106184009BB2BDF802209A4225D800238DF80F3027
:1061940018E09DF80F30019A1A44124B1B78591CD1
:1061A400C8B21049087019460F4B5B5C13709DF818
:1061B4000F3001338DF80F30094B1B78013BDAB2F5
:1061C400074B1A709DF80F309BB2BDF802209A421B
:1061D400DFD8002301E04FF0FF33184604B07047C6
:1061E400A95C0020A85C0020E05B002084B0019042
:1061F4000B46ADF80230BDF80230019A1344002278
:106204001A60BDF80230019A13441B680393039B80
:1062140000BF04B0704782B001900B46ADF8023065
:10622400BDF80230019A13441B68002B14BF0123EC
:106234000023DBB2184602B0704782B0019000918F
:10624400019B009AC3F8042300BF02B0704782B0D8
:1062540001900091019BD3F80423009B1340002B71
:1062640014BF01230023DBB2184602B0704782B08A
:1062740001900091019B009AC3F8082300BF02B06B
:10628400704784B00190019BD3F880340393019B41
:10629400039AC3F88024039B184604B0704782B065
:1062A4000190019B0422C3F8002500BF02B070478F
:1062B40084B0039002910192039B019AC3F81425C0
:1062C400039B029AC3F80C2500BF04B0704784B046
:1062D400039002910192039B029AC3F80825039B41
:1062E400019AC3F8102500BF04B0704782B0019032
:1062F400019BD3F81835DBB2184602B0704782B060
:1063040001900B468DF803309DF80320019BC3F8E0
:106314001C2500BF02B0704782B001900B468DF877
:1063240003309DF80330019A134401221A6000BF20
:1063340002B0704782B001900B468DF803301346CB
:106344008DF802309DF803209DF802301343DBB230
:106354001A46019BC3F86C2500BF02B0704782B097
:1063640001900091019B009AC3F8242500BF02B05C
:10637400704784B001900B46ADF80230BDF802308E
:10638400019A134400221A60BDF80230019A1344A2
:106394001B680393039B00BF04B0704782B0019055
:1063A4000B46ADF80230BDF80230019A13441B6865
:1063B400002B14BF01230023DBB2184602B0704740
:1063C40082B001900091019BD3F80022009B1A43F4
:1063D400019BC3F8002200BF02B0704782B0019055
:1063E4000091019BD3F80022009BDB431A40019BE0
:1063F400C3F8002200BF02B0704782B00190009140
:10640400019B009AC3F8042300BF02B0704782B016
:1064140001900091019B009AC3F8082300BF02B0C9
:10642400704784B00190019BD3F880340393019B9F
:10643400039AC3F88024039B184604B0704782B0C3
:106444000190019B0822C3F8002500BF02B07047E9
:1064540084B0039002910192039B029AC3F80C2525
:10646400039B019AC3F8142500BF04B0704784B09D
:10647400039002910192039B029AC3F80825039B9F
:10648400019AC3F8102500BF04B0704782B0019090
:106494000B468DF803309DF80330019A1344012212
:1064A4001A6000BF02B0704782B001900B468DF8AD
:1064B400033013468DF802309DF803209DF8023016
:1064C4001343DBB21A46019BC3F86C2500BF02B02C
:1064D400704782B001900091019B009AC3F8242573
:1064E40000BF02B0704784B00390029113468DF848
:1064F4000730029A039BC3F844259DF80720039BA9
:10650400C3F8482500BF04B0704782B00190019BD6
:10651400D3F84C35184602B0704784B0039002910A
:1065240013468DF80730029A039BC3F834259DF86F
:106534000720039BC3F8382500BF04B0704782B01E
:106544000190019BD3F83C35184602B0704784B0E3
:106554000190019B1B0B8DF80F309DF90F301846ED
:1065640004B0704782B00190019B03F06043B3F123
:10657400005F0CBF01230023DBB2184602B0704752
:1065840000B583B00190019B1B681F2B04D90549FA
:106594004FF4E870FEF775FE4FF0A043184603B0C1
:1065A4005DF804FB6CBC020000B585B001900846A0
:1065B40011461A4603468DF803300B468DF8023017
:1065C40013468DF8013001AB1846FFF7D9FF03904D
:1065D400019A9DF803109DF802305B0019439DF861
:1065E40001309B0019439DF818301B0219439DF894
:1065F4001C301B041943039B02F5E07243F822107C
:1066040000BF05B05DF804FB00B585B0039000231E
:106614000193002300930023012201210398FFF733
:10662400C3FF00BF05B05DF804FB00B585B003905F
:106634000B468DF80B309DF80B20002301930023AB
:1066440000931346002200210398FFF7ADFF00BF1B
:1066540005B05DF804FB00B585B0019001AB1846A8
:10666400FFF78EFF0390019B012202FA03F3194600
:10667400039800F004F800BF05B05DF804FB82B095
:1066840001900091019B009AC3F8082500BF02B055
:106694007047000000B583B001900091009B1B6817
:1066A400B3F1FF3F09D0009B1B681846FFF7D3FFE7
:1066B400009B1B681846FFF7A7FF009B5B68B3F1BC
:1066C400FF3F05D0009B5B6800211846FFF7ADFF34
:1066D400019B1B79464A5B0113441C331B78002B36
:1066E40041D0019B1A68009B9B6919461046FFF72D
:1066F400F0FE019B1868009B597D009B1B7D1A4688
:10670400FFF7D2FE019B1868009B1968009B5B6829
:106714001A46FFF79DFE009B1B7D012B64D1009B55
:106724009B68B3F1FF3F05D0009B9B68002118468E
:10673400FFF77BFF009BDB68B3F1FF3F09D0009BB1
:10674400DB681846FFF787FF009BDB681846FFF7F6
:106754005BFF019B1868009BD968009B9B681A46E5
:10676400FFF785FE40E0019B1A68009B9B69194670
:106774001046FFF7F4FD019B1868009B597D009BB0
:106784001B7D1A46FFF7D6FD019B1868009B19680C
:10679400009B5B681A46FFF78BFD009B1B7D012B5A
:1067A40022D1009B9B68B3F1FF3F05D0009B9B68FF
:1067B40000211846FFF739FF009BDB68B3F1FF3F68
:1067C40009D0009BDB681846FFF745FF009BDB6898
:1067D4001846FFF719FF019B1868009BD968009BB6
:1067E4009B681A46FFF773FD00BF03B05DF804FB16
:1067F400AC5C002000B583B001900B468DF80330EB
:10680400019B1B792D4A5B0113441C331B78002B1D
:106814002FD0019B1B684FF488711846FFF7A9FD20
:10682400019B1B684FF490711846FFF7A2FD019B72
:106834001B684FF492711846FFF79BFD019B1B6880
:106844004FF4A2711846FFF794FD019B1B681C4985
:106854001846FFF7D2FD019B1B681846FFF777FE29
:1068640003461A469DF803301946104600F0C2FE4E
:1068740020E0019B1B684FF48E711846FFF7B6FCAD
:10688400019B1B684FF4A2711846FFF7AFFC019BF4
:106894001B680C491846FFF7D0FC019B1B6818467F
:1068A400FFF755FE03461A469DF803301946104675
:1068B40000F0A0FE00BF03B05DF804FBAC5C002058
:1068C400100302008000020000B583B00190019B18
:1068D4001B790B4A5B0113441C331B78002B05D036
:1068E400019B1B681846FFF7AAFD04E0019B1B6887
:1068F4001846FFF7D4FC00BF03B05DF804FB00BFEB
:10690400AC5C002000B587B0039002910192029B19
:10691400002B04D122494FF48870FEF7B2FC039B8C
:106924001B795B011F4A1344059300230493059BC1
:10693400DB7E002B03D008230493049B2BE0029BF3
:106944005A7F059B1A7702990398FFF7A3FE059BCC
:10695400019A5A60029B1A69059B1A60059B5B6841
:10696400002B05D0029B1B7F19460398FFF742FFBB
:106974000398FFF7A9FF059B0022DA75059B002207
:106984001A76059B00229A75059B0122DA76059BEF
:1069940000229A76049B184607B05DF804FB00BFFA
:1069A400A0BC0200AC5C002000B585B00190009151
:1069B4004FF48E710198FFF719FC009B9B68009AB5
:1069C400928A92B213441B788DF80F30009B9B8AF5
:1069D4009BB201339AB2009B9A829DF80F301946FC
:1069E4000198FFF78CFC00BF05B05DF804FB0000C4
:1069F40000B585B00190019B1B795B01344A1344B7
:106A0400029300230393019B1B684FF48E71184675
:106A1400FFF7ECFB019B1B6808211846FFF77CFC81
:106A2400019B1B6802991846FFF7BEFF029B5B6837
:106A3400002B48D11FE000BF019B1B684FF48E71EF
:106A44001846FFF7E8FB034683F00103DBB2002B93
:106A540005D0029B9B8A9BB2B3F5807FECD1029B4D
:106A64009B8A9BB2B3F5807F05D0019B1B6802997A
:106A74001846FFF799FF029B9B8A9AB2029B9B7D63
:106A84009BB29A42D7D3029B9B8A9BB2B3F5807F79
:106A940002D10F23039313E000BF019B1B684FF443
:106AA4008E711846FFF7B7FB034683F00103DBB290
:106AB400002BF2D1019B1B680C211846FFF72CFC1C
:106AC400029B00229A75039B184605B05DF804FBEF
:106AD400AC5C002000B587B00190019B1B795B0181
:106AE4002A4A1344049300230593019B1B684FF423
:106AF40090711846FFF73DFC019B1B684FF4AC7185
:106B04001846FFF736FC019B1868049B9968049BA0
:106B14009B7D1A46FFF7E7FC019B1B68082118467A
:106B2400FFF7B4FC049B5B68002B2AD1019B1B6814
:106B34004FF490711846FFF731FC03468DF80F307F
:106B4400019B1B684FF4AC711846FFF727FC034602
:106B54008DF80E309DF80F3083F00103DBB2002B6B
:106B640006D09DF80E3083F00103DBB2002BDDD19B
:106B74009DF80E30002B01D00F230593049B0022B7
:106B84009A75059B184607B05DF804FBAC5C0020C1
:106B940000B587B00390029113468DF80730039B2C
:106BA4001B795B012E4A13440593059BDB7E012B65
:106BB40004D02C494FF4CC70FEF763FB9DF80730EA
:106BC400002B04D1274940F29910FEF75AFB029B8F
:106BD400002B04D123494FF4CD70FEF752FB039BE5
:106BE4001B791F4A5B0113441C331B78002B0CD008
:106BF4000298FFF7B7FC034683F00103DBB2002BD6
:106C040003D010230493049B25E0039800F02CF890
:106C14000346002B03D011230493049B1BE0059B24
:106C24009DF807209A75059B029A9A60059B00229D
:106C34009A82039B1B790A4A5B0113441C331B7819
:106C4400002B04D00398FFF745FF034603E00398A5
:106C5400FFF7CEFE0346184607B05DF804FB00BFFD
:106C6400AC5C0020A0BC020082B00190019B1B79A7
:106C7400064A5B01134416331B78002B14BF01230F
:106C84000023DBB2184602B0704700BFAC5C0020A2
:106C940000B583B00190019B1B684FF492711846B4
:106CA400FFF7A4FA019B1B684FF484711846FFF7A1
:106CB4009DFA019B1B6800211846FFF72DFB00BFBE
:106CC40003B05DF804FB10B582B001900091009B05
:106CD400DB7D002B08D14FF484710198FFF786FA0D
:106CE4000198FFF703FB16E04FF484710198FFF756
:106CF4007DFA009BDB68009A527ED2B29C18019800
:106D0400FFF7F4FA03462370009B5B7EDBB201338A
:106D1400DAB2009B5A7602B010BD000000B589B00B
:106D24000390029111461A460B468DF8073013461C
:106D34008DF80630039B1B795B014D4A134407937E
:106D4400079B9B7E83F00103DBB2002B09D09DF8E7
:106D5400063083F00103DBB2002B02D00398FFF767
:106D640097FF079B5B68002B73D1039B1B684FF451
:106D7400A2711846FFF73AFA039B1B684FF492710D
:106D84001846FFF748FA03468DF81B30039B1B682F
:106D94004FF484711846FFF73EFA03468DF81A3013
:106DA400039B1B684FF4A2711846FFF734FA03469D
:106DB4008DF819309DF81A3083F00103DBB2002BF3
:106DC4000DD09DF8193083F00103DBB2002B06D0FF
:106DD4009DF81B3083F00103DBB2002BCCD19DF86E
:106DE4001B30002B10D19DF81930002B0CD1039BC4
:106DF4001B6807991846FFF766FF079BDA7D079B18
:106E04005B7EDBB29A42B7D8079B0022DA759DF805
:106E14001B30002B03D003230593059B23E09DF82F
:106E24001930002B03D00F230593059B1BE0079B10
:106E34009B7E002B06D0039B1B6800211846FFF79E
:106E44006BFA0DE0039B1B6804211846FFF764FAF4
:106E540006E0039B1B684FF401711846FFF7EDF938
:106E640000230593059B184609B05DF804FB00BF99
:106E7400AC5C002000B587B00390029111461A461D
:106E84000B468DF8073013468DF806300023059322
:106E9400039B1B684FF488711846FFF76AFA039B3B
:106EA4001B684FF4A2711846FFF763FA039B1B6833
:106EB4009DF8072002991846FFF72FFB9DF806302E
:106EC40083F00103DBB2002B06D0039B1B68002177
:106ED4001846FFF7DBFA05E0039B1B6820211846E0
:106EE400FFF76EFA039B1B792D4A5B0113440433AD
:106EF4001B68002B47D1039B1B684FF4887118460D
:106F0400FFF74CFA03468DF81330039B1B684FF4CC
:106F1400A2711846FFF742FA03468DF81230039B1C
:106F24001B684FF492711846FFF738FA03468DF840
:106F340011309DF8133083F00103DBB2002B0DD028
:106F44009DF8123083F00103DBB2002B06D09DF8CC
:106F5400113083F00103DBB2002BCCD1039B1B79EE
:106F64000F4A5B011344173300221A709DF8113045
:106F7400002B01D0032305939DF81230002B09D078
:106F84000F23059306E0039B1B684FF40471184616
:106F9400FFF733FA059B184607B05DF804FB00BF02
:106FA400AC5C002000B589B00390029113468DF8C3
:106FB4000730039B1B795B015A4A13440693039BD6
:106FC4001B79584A5B0113441B331B78012B04D0F3
:106FD40055494FF41670FEF754F99DF80730002B0D
:106FE40004D1514940F25920FEF74BF9039B1B7918
:106FF4004C4A5B0113441C331B78002B0CD00298C1
:10700400FFF7B0FA034683F00103DBB2002B03D091
:1070140010230593059B81E000238DF81F30069B08
:107024005B68002B17D0039B1B793E4A5B0113441A
:107034001C331B78002B07D0039B1B684FF404718F
:107044001846FFF7E4F906E0039B1B684FF401714F
:107054001846FFF70CF9069BDB7D002B26D0069B18
:107064001B7E002B1FD0069B5B68002B17D0039B55
:107074001B792C4A5B0113441C331B78002B07D06B
:10708400039B1B684FF404711846FFF7B6F906E03A
:10709400039B1B684FF401711846FFF7CEF81123C8
:1070A4000593059B3AE001238DF81F309DF81F30AE
:1070B40083F00103DBB2002B0DD0069B9DF8072063
:1070C400DA75069B029ADA60069B00225A76069BC2
:1070D40000221A7606E0069B029A1A61069B9DF826
:1070E40007201A76039B1B790E4A5B0113441C3359
:1070F4001B78002B09D09DF81F309DF807200299BA
:107104000398FFF7B7FE034608E09DF81F309DF88B
:10711400072002990398FFF701FE0346184609B0B9
:107124005DF804FBAC5C0020A0BC020000B589B093
:1071340003900B4601928DF80B3001238DF810302B
:107144009DF80B308DF81830019B0593039B5B6809
:10715400039A116804AA1046984700BF09B05DF865
:1071640004FB00B587B001900B468DF80330002373
:107174008DF808309DF803308DF81030019B9B6822
:107184000393019B00229A75019B5B68019A116825
:1071940002AA1046984700BF07B05DF804FB000040
:1071A40000B583B00190019B1B790F4A5B01134426
:1071B4001C331B78002B06D0019B1B680421184646
:1071C400FFF764F90CE0019B1B684FF4017118464A
:1071D400FFF74DF8019B1B6804211846FFF79CF844
:1071E40000BF03B05DF804FBAC5C002000B589B0BF
:1071F400019000914FF400710198FFF728F80346BD
:10720400002B39D04FF492710198FFF704F803462C
:10721400002B31D04FF492710198FEF7E7FF4FF441
:1072240001710198FFF723F8009B9B7E83F0010313
:10723400DBB2002B03D004210198FFF76DF8022381
:107244008DF808300198FFF71CF803460593009B5E
:10725400DB7D8DF81030009BDB680393009B0022DC
:10726400DA75009B00221A76009B5B68009A11680D
:1072740002AA1046984756E004210198FEF7E7FF5A
:107284000346002B4FD04FF484710198FEF7C3FFDF
:107294000346002B47D000990198FFF714FD009B8B
:1072A400DA7D009B5B7EDBB29A423CD1009B1B7E65
:1072B400002B1CD0009BDB680793009B5B7E8DF842
:1072C4001B30009B1A7E009BDA75009B1A69009B99
:1072D400DA60009B00221A76009B00225A769DF801
:1072E4001B30079A19460098FFF720FF1BE0009B0C
:1072F4009B7E83F00103DBB2002B03D004210198B1
:10730400FFF70AF84FF401710198FEF7B0FF009BF4
:107314000022DA75009B5B7ED9B2009BDB681A46BB
:107324000098FFF703FF4FF48E710198FEF773FF87
:107334000346002B1BD0009B9B8A9AB2009B9B7D2B
:107344009BB29A4204D200990198FFF72DFB0EE0FC
:107354004FF48E710198FEF749FF009B9B7D002B33
:1073640005D0009B9B7D19460098FFF7FAFE4FF469
:10737400A2710198FEF74FFF0346002B1CD04FF477
:10738400A2710198FEF732FF009B9B7E002B03D075
:1073940000210198FEF7C0FF009BDB7D002B0BD082
:1073A400009B0022DA75009B5B7ED9B2009BDB68F0
:1073B4001A460098FFF7BAFE00BF09B05DF804FB57
:1073C40000B589B0019000914FF492710198FEF7D5
:1073D400E5FF0346002B24D04FF492710198FEF789
:1073E400C8FF02238DF808300198FFF71AF8034606
:1073F40005930198FFF7A3F80346DBB28DF810302C
:10740400009BDB680393009B0022DA75009B00223B
:107414001A76009B5B68009A116802AA1046984786
:1074240041E04FF488710198FEF7B8FF0346002B42
:1074340039D04FF488710198FEF79BFF0198FFF74C
:107444007EF803468DF81F30009BDB7D9DF81F20DE
:107454009A4228D1009B1B7E002B19D0009BDB682D
:10746400069320210198FEF7B9FF009B1A7E009B2A
:10747400DA75009B1A69009BDA60009B00221A7679
:107484009DF81F30069A19460098FFF74FFE0AE050
:10749400009B0022DA75009BDA689DF81F301946BC
:1074A4000098FFF743FE4FF4A2710198FEF776FFB0
:1074B4000346002B16D04FF4A2710198FEF759FF32
:1074C400009BDB7D002B0DD0009B0022DA75019818
:1074D400FFF735F80346D9B2009BDB681A460098DB
:1074E400FFF724FE4FF490710198FEF757FF03460F
:1074F400002B11D04FF490710198FEF73AFF009BD6
:107504009B7D002B08D00198FEF7FFFF0346DBB2FA
:1075140019460098FFF725FE00BF09B05DF804FB8B
:1075240008B5074B1B7F002B04D005490548FFF71E
:1075340047FF03E002490348FFF758FE00BF08BDB8
:10754400AC5C00200020004082B003468DF8073078
:1075540007499DF907305B099DF8072002F01F02D7
:10756400012000FA02F241F8232000BF02B0704764
:1075740000E100E082B003468DF8073008499DF928
:1075840007305B099DF8072002F01F02012000FA72
:1075940002F2603341F8232000BF02B0704700BFFD
:1075A40000E100E082B0034600918DF807309DF9B8
:1075B4000730002B0CDA0D499DF8073003F00F0358
:1075C400043B009AD2B25201D2B20B441A7609E0BB
:1075D40007499DF90730009AD2B25201D2B20B4446
:1075E40083F8002300BF02B0704700BF00ED00E045
:1075F40000E100E000B583B003460A468DF8073089
:1076040013468DF806309DF80630012B03D99DF8FA
:107614000630032B0CD99DF80630042B03D99DF8B2
:107624000630072B04D90D494FF49270FDF729FE5B
:107634009DF806209DF9073011461846FFF7B2FF62
:107644009DF907301846FFF795FF9DF90730184656
:10765400FFF77AFF00BF03B05DF804FBDCBC020057
:1076640082B003468DF8073008499DF907305B095D
:107674009DF8072002F01F02012000FA02F22033D5
:1076840041F8232000BF02B0704700BF00E100E0D2
:1076940082B001904FF08042019BC2F8043300BFD6
:1076A40002B0704782B001904FF08042019BC2F853
:1076B400083300BF02B0704782B003468DF807302C
:1076C4009DF8073003F1804301221A6000BF02B025
:1076D400704784B00346ADF80630BDF8063003F1B8
:1076E400804300221A60BDF8063003F180431B6812
:1076F4000393039B00BF04B0704782B00346ADF808
:107704000630BDF8063003F180431B68002B14BF1C
:1077140001230023DBB2184602B0704782B003464F
:107724008DF807304FF080429DF8073003F00303D3
:10773400C2F8183500BF02B070474FF08043D3F849
:1077440018341B0C03F00103002B14BF0123002386
:10775400DBB218467047000082B003468DF807304C
:107764000A4A9DF907305B0952F823209DF8073037
:1077740003F01F03012101FA03F31340002B14BF8C
:1077840001230023DBB2184602B0704700E100E099
:1077940008B50020FFF7E0FF034683F00103DBB2E6
:1077A400002B03D007210020FFF724FF00BF08BDF2
:1077B40008B54FF48270FFF78CFF0220FFF768FFD3
:1077C4000820FFF779FF00BF08BD000008B5FDF7EA
:1077D400DDFD034683F00103DBB2002B03D109492D
:1077E4008420FDF74EFD0C20FFF766FF00BFFFF776
:1077F400A4FF0346002BFAD1034B00229A7000BF6A
:1078040008BD00BF1CBD0200CC5C002000B583B0E5
:1078140000230193134B1B78002B02D08523019383
:107824001BE0104B00229A600E4B00225A600D4B55
:1078340000221A610B4B0022DA60FFF7A9FFFDF763
:10784400A5FD034683F00103DBB2002B02D0002028
:10785400FFF764FF034B01221A70019B184603B023
:107864005DF804FBCC5C002084B001900091019B86
:107874001B68039306E0039A009B9A420DD0039B76
:107884001B680393039B002BF5D1019B1A68009B93
:107894001A60019B009A1A6000E000BF04B07047B0
:1078A40084B00190019B1B680393039B002B03D0BE
:1078B400039B1A68019B1A60039B184604B0704727
:1078C40000B585B00190294B1B78002B03D12849C2
:1078D400FB20FDF7D6FC254B9B78DBB2002B19D09F
:1078E400019B002B03D0019B5B6801209847002378
:1078F4008DF80F300DF10F031846FDF775FC1B4B87
:10790400DB680133194AD3609DF80F301846FDF740
:1079140081FC1EE000238DF80E300DF10E03184695
:10792400FDF762FC019B002B03D001991148FFF77E
:107934009BFF0E4BDB68002B01D1FFF739FF0B4B8C
:10794400DB680133094AD3609DF80E301846FDF711
:1079540061FC064BDB68002B04D1054940F217108B
:10796400FDF78FFC00BF05B05DF804FBCC5C002084
:107974001CBD0200DC5C002000B583B0164B1B78F4
:10798400002B04D115494FF48E70FDF77AFC124B8D
:10799400DB68002B04D1114940F21D10FDF771FC86
:1079A40000238DF807300DF107031846FDF71CFC82
:1079B400094BDB68013B084AD360074BDB68002BAB
:1079C40001D1FFF703FF9DF807301846FDF722FCAD
:1079D40000BF03B05DF804FBCC5C00201CBD0200BA
:1079E40000B585B003468DF807309DF80730002BAD
:1079F40002D10C4B039301E00B4B03930398FFF765
:107A04004FFF0290029B002B06D0029B5B689DF8FF
:107A1400072010469847F1E700BF00BF05B05DF8A6
:107A240004FB00BFD45C0020DC5C002008B54FF4EC
:107A34008070FFF762FE0346002B0CD04FF4807079
:107A4400FFF747FE0120FFF72DFE0E4B01225A706F
:107A54000020FFF7C5FF4FF48270FFF74EFE034688
:107A6400002B0CD04FF48270FFF733FE0220FFF797
:107A740019FE044B01229A700120FFF7B1FF00BFE9
:107A840008BD00BFCC5C002000B583B0019000911C
:107A9400019B002B02D10020FFF7A2FF00BF03B01F
:107AA4005DF804FB00B585B0034600918DF80730FE
:107AB4009DF80730012B08D0032B25D0002B00D0D4
:107AC40032E00020FFF7CCFD2EE000238DF80F30CC
:107AD4000DF10F031846FDF787FB154B1B7883F058
:107AE4000103DBB2002B01D0FFF790FE104BDB68E3
:107AF40001330F4AD3600E4B01229A709DF80F3068
:107B04001846FDF787FB0FE0094B1B78002B04D1C7
:107B1400084940F25B20FDF7B4FB07210020FFF782
:107B240069FDFFF729FF00BF00BF05B05DF804FB46
:107B3400CC5C00201CBD020084B003900291019231
:107B4400039B029A02F5A872019943F8221000BF20
:107B540004B0704782B001900091019B009AC3F871
:107B6400042300BF02B0704782B001900091019BD2
:107B7400009AC3F8082300BF02B0704782B0019096
:107B84000091019BD3F80423009B1340184602B0D4
:107B9400704782B001900B46ADF80230BDF8023058
:107BA400019A13441B68184602B0704784B00190D0
:107BB4000B46ADF80230BDF80230019A134400229E
:107BC4001A60BDF80230019A13441B680393039BA7
:107BD40000BF04B0704782B00190019BD3F8043514
:107BE400184602B07047000000B583B001900091C0
:107BF400009BB3F5805F04D3064940F23110FDF7D2
:107C040040FB019B009AC3F8082500BF03B05DF850
:107C140004FB00BF58BD020082B001900B468DF8F2
:107C240003309DF80320019B13441A46012313607B
:107C340000BF02B0704782B001900091019B009A8E
:107C4400C3F8442300BF02B0704782B00190009192
:107C5400019B009AC3F8482300BF02B0704700009C
:107C640000B587B0039002910192029B002B03D1CF
:107C74002E495520FDF705FB019B002B12D0039BD9
:107C84005B7919462A4A019B42F82130039B5B79B0
:107C94001946284A0B465B000B4413441B78002BFF
:107CA40008D003E007230593059B3BE008230593D5
:107CB400059B37E0039B93F90420029B9B781946AC
:107CC4001046FFF797FC039B1A68029B1B88194612
:107CD4001046FFF789FF039B5B791946029B1879CD
:107CE400144A0B465B000B441344013302461A70DA
:107CF400039B5B791946029BD8780E4A0B465B00BE
:107D04000B441344023302461A70039B5B791946F1
:107D1400084A0B465B000B44134401221A700023EB
:107D24000593059B184607B05DF804FB8CBD020063
:107D3400E05C0020E85C002000B583B00190019B6A
:107D44005B7919460F4A0B465B000B4413441B78BE
:107D5400012B03D00C498C20FDF793FA019B1B687F
:107D640000211846FFF758FF019B5B791946054A25
:107D74000B465B000B44134402221A7000BF03B08D
:107D84005DF804FBE85C00208CBD020000B58BB0FC
:107D94000390029101928DF80330039B5B7919469D
:107DA400484A0B465B000B4413441B78002B03D159
:107DB4004549BC20FDF765FA039B9B791A46029B53
:107DC4009A4203D84049BD20FDF75BFA4FF4803254
:107DD400029B02FA03F30893029B9BB250339BB2BB
:107DE4009B00ADF81E30039B1B6808991846FFF7EB
:107DF4002CFF039B1B6808991846FFF7B5FE019BEF
:107E040023F07F430193039B5B7919462D4A0B466C
:107E14005B000B44134401331B78002B2CD0039BD1
:107E24001B68019A02991846FFF786FE039B1B689C
:107E34001846FFF7D0FE0690069A019BD31A0993C1
:107E4400069A019B9A4205D2099B03F1FF1303F59D
:107E54007F430993039B5B7919461A4A0B465B00DF
:107E64000B44134402331B781A46099B9A420ADDD9
:107E74000D230593059B21E0039B1B68019A02993E
:107E84001846FFF759FE9DF80330002B0DD0039BD5
:107E94001B68BDF81E2011461846FFF787FE039B9A
:107EA4001B6808991846FFF755FE039B1B68089941
:107EB4001846FFF7C0FE00230593059B18460BB038
:107EC4005DF804FBE85C00208CBD020000B589B0BD
:107ED4000390029101924FF4803306934FF4A07300
:107EE400ADF816300023079330E006990398FFF7A6
:107EF40045FE0346002B1ED0BDF8163019460398E4
:107F0400FFF747FE0346002B15D006990398FFF7A9
:107F14009CFE06990398FFF727FEBDF81630194614
:107F24000398FFF743FE2D4A029B52F82330079A29
:107F3400D2B210469847069B5B000693BDF81630F4
:107F44000433ADF81630079B01330793079A019B5E
:107F54009A42CAD34FF48073ADF8163001210398C6
:107F6400FFF70CFE0346002B14D0BDF8163019465B
:107F74000398FFF70EFE0346002B0BD0BDF8163016
:107F840019460398FFF712FE144A029B52F8233055
:107F9400042098474FF48273ADF8163002210398F9
:107FA400FFF7ECFD0346002B14D0BDF8163019463C
:107FB4000398FFF7EEFD0346002B0BD0BDF81630F7
:107FC40019460398FFF7F2FD044A029B52F8233046
:107FD4000520984700BF09B05DF804FBE05C002071
:107FE40008B5042200210248FFF770FF00BF08BD56
:107FF4000010014008B5042201210248FFF766FF82
:1080040000BF08BD0040024000B583B00346ADF890
:108014000630BDF80630184600F026F803461B6803
:10802400012B0CBF01230023DBB2184603B05DF81B
:1080340004FB00B585B00346ADF80630BDF8063044
:10804400184600F011F803461A4600231360BDF8E1
:108054000630184600F008F803461B680393039B98
:1080640000BF05B05DF804FB82B00346ADF80630EE
:10807400BDF8063003F1804303F5C043184602B04F
:108084007047000082B00190034A019BC2F8043398
:1080940000BF02B0704700BF0060004082B0019092
:1080A400034BD3F80423019B1340184602B07047D6
:1080B4000060004082B001900849084A019B03F522
:1080C400A27352F8233043F00102019B03F5A2731B
:1080D40041F8232000BF02B0704700BF0060004099
:1080E40084B00390029113468DF807301449144A62
:1080F400039B03F5A27352F8233023F4473323F48C
:108104004073039A02F5A27241F822300C480C4ADB
:10811400039B03F5A27352F82320029B1B0203F472
:10812400F8519DF807301B0403F440330B431A4302
:10813400039B03F5A27340F8232000BF04B07047EB
:108144000060004082B00190054A019B03F5A273D0
:1081540052F823301B0A03F01F03184602B070477D
:108164000060004082B00190064A019B03F5A273AF
:1081740052F823301B0C03F00303DBB2184602B0A1
:10818400704700BF0060004000B583B00190019BC0
:108194001B681F2B04D905494FF4E870FDF771F8EB
:1081A4004FF0A043184603B05DF804FBC4BD0200C1
:1081B40000B585B00190084611461A4603468DF86D
:1081C40003300B468DF8023013468DF8013001ABB5
:1081D4001846FFF7D9FF0390019A9DF803109DF804
:1081E40002305B0019439DF801309B0019439DF850
:1081F40018301B0219439DF81C301B041943039BC0
:1082040002F5E07243F8221000BF05B05DF804FBEC
:1082140000B585B003900B468DF80B309DF80B200C
:1082240000230193002300931346002200210398A6
:10823400FFF7BEFF00BF05B05DF804FB00B585B0D5
:10824400019001AB1846FFF79FFF0390019A039B2F
:1082540002F5E07253F8223023F002030293019AEC
:10826400039B02F5E072029943F8221000BF05B0A7
:108274005DF804FB00B585B001900B468DF8033022
:1082840001AB1846FFF780FF0390019A0199039B05
:1082940001F5E07153F8213023F44031039B02F5DA
:1082A400E07243F82210019A0199039B01F5E071F1
:1082B40053F821309DF8031009041943039B02F578
:1082C400E07243F8221000BF05B05DF804FB00B56E
:1082D40085B0019001AB1846FFF756FF0390039851
:1082E40000F020F80246019B22FA03F303F0010395
:1082F400184605B05DF804FB00B585B0019001ABEC
:108304001846FFF741FF0390019A039B02F5E072C0
:1083140053F822301B0C03F00303DBB2184605B0FC
:108324005DF804FB82B00190019BD3F81035184628
:1083340002B0704700B587B00390029101924FF0EC
:10834400A0430493039A029B1344012B04D91249BA
:108354004FF43A70FCF795FF039B059311E0059BDE
:108364009B0006AA134453F8083C1846FFF7DAFFAB
:108374000246019B1A60019B04330193059B013360
:108384000593039A029B1A44059B9A42E7D800BFBF
:1083940007B05DF804FB00BFC4BD020084B00190C7
:1083A4000091009B0393019BDB080293019B03F064
:1083B400070301930122019B02FA03F30399029A32
:1083C4000A4412781340184604B0704784B00190F0
:1083D4000091009B0393019BDB080293019B03F034
:1083E40007030193039A029B13440399029A0A44D4
:1083F400127851B20120019A00FA02F252B20A43F1
:1084040052B2D2B21A7000BF04B0704782B0019069
:108414000C4A019B13442C3393F90030002B09DBE5
:10842400084A019B13442C3393F90030072B01DCD9
:10843400012300E0002303F00103DBB2184602B07D
:10844400704700BFF05C002082B00190064A019B97
:1084540013442C3393F90030072BCCBF01230023A2
:10846400DBB2184602B07047F05C002082B0019085
:10847400064A019B13442C3393F90030DB43DBB2EF
:10848400DB09DBB2184602B0704700BFF05C002085
:1084940084B00390029101928DF80330029B59B28B
:1084A4000E4A039B13442C330A461A700B49029B51
:1084B400019A41F823209DF8033083F00103DBB2D5
:1084C400002B08D0029B083B039A51B2034A134481
:1084D4000A4683F84C2000BF04B07047F05C0020CB
:1084E40082B00190044A019B13442C33FF221A707A
:1084F40000BF02B0704700BFF05C002082B0019062
:10850400044A019B13442C3393F90030184602B0FB
:10851400704700BFF05C002082B00190034A019BC9
:1085240052F82330184602B0704700BFF05C0020B8
:1085340000B589B00390029113468DF80730FF23EC
:108544008DF81F309DF80730002B01D0002300E088
:10855400082305939DF80730002B01D0082300E081
:108564000B230493059B069314E00F4A069B52F8D1
:108574002330B3F1FF3F0AD19DF80730029A0699E0
:108584000398FFF785FF069B8DF81F3006E0069BD6
:1085940001330693069A049B9A42E6D39DF91F3051
:1085A400184609B05DF804FBF05C002082B0034675
:1085B4008DF807309DF80730094A4FF0FF3142F833
:1085C40023109DF80730072B07D99DF80730083B87
:1085D400034A1344FF2283F84C2000BF02B07047C3
:1085E400F05C002000B583B0214B93F84F30002B92
:1085F40003D008230093009B36E000238DF8073056
:1086040009E09DF807301846FFF76AFF9DF8073028
:1086140001338DF807309DF807301F2BF1D9002363
:108624008DF8073009E09DF807301846FFF7BEFFC4
:108634009DF8073001338DF807309DF807300A2B79
:10864400F1D907210620FEF7D5FF4FF4BE70FFF7DE
:10865400F0FC4FF00040FFF715FD054B012283F8B5
:108664004F2000230093009B184603B05DF804FBE1
:10867400F05C002000B587B0039002910192039B47
:108684001F2B04D92B4940F2F710FCF7FAFD002305
:1086940005930398FFF7EAFE0346002B02D0082354
:1086A400059341E0029BDB781A4601990398FFF792
:1086B4003FFF03468DF813309DF91330B3F1FF3FAC
:1086C40030D0029B9B78002B03D00398FFF7B6FDB4
:1086D40005E0029B5B7819460398FFF799FD029B1E
:1086E400DB78002B08D09DF91300029B1B781A46F7
:1086F4000399FFF7F5FC17E09DF91330083B9DF94A
:108704001320083A0C490A4492F94C10029A127840
:10871400920152B20A4351B2074A13440A4683F8FB
:108724004C2001E004230593059B184607B05DF82F
:1087340004FB00BFF8BD0200F05C002000B587B068
:1087440001900B468DF80330019B1F2B04D93D4942
:1087540040F22520FCF795FD0198FFF787FE0346BC
:10876400002B04D1374940F22620FCF78AFD0198FA
:10877400FFF76AFE0346002B2FD00198FFF7BEFED9
:108784000346083B304A134493F94C308DF81630B5
:108794009DF816309B098DF815309DF81530032B84
:1087A4000BD10198FFF793FD0346002B01D003235F
:1087B40000E002238DF8173008E09DF81530012BF6
:1087C40001D1022300E003238DF817309DF8173000
:1087D40019460198FFF74EFD30E00198FFF716FEA9
:1087E4000346002B2AD00198FFF788FE0346049322
:1087F400049B9BB240339BB29B00ADF80E30049BAC
:108804001846FFF757FCBDF80E301846FFF711FC69
:108814009DF80330002B11D00198FFF76FFE03463B
:108824001846FFF779FE0290029B002B06D0012226
:10883400049B02FA03F31846FFF724FC00BF07B0B9
:108844005DF804FBF8BD0200F05C002000B585B0C3
:108854000190019B1F2B04D9194940F27920FCF7A0
:1088640010FD0198FFF7F0FD0346002B0AD1019893
:10887400FFF7CCFD0346002B04D1114940F27A20C6
:10888400FCF7FFFC4FF4BE73ADF80E300198FFF710
:10889400BDFD0346002B09D00198FFF72FFE0346C8
:1088A4009BB240339BB29B00ADF80E30BDF80E3046
:1088B4001846FFF7D9FB0346184605B05DF804FBDC
:1088C400F8BD020000B595B0002313930023039371
:1088D4004FF48073ADF846300123109300231293B4
:1088E40021E0BDF846301846FFF78EFB0346002B07
:1088F4000ED01098FFF7D2FB0346002B08D0BDF82A
:1089040046301846FFF795FB139A109B13431393B5
:10891400109B5B001093BDF846300433ADF846302D
:10892400129B01331293129B072BDAD94FF4BE70BA
:10893400FFF76AFB0346002B0DD04FF4BE70FFF720
:1089440078FB139B43F00043139303AB1A460121B6
:108954000020FFF7EFFC139BDBB2002B29D001238F
:1089640010930023129321E0109A139B1340002BC1
:1089740016D01298FFF7E6FB0D901298FFF7F2FB62
:1089840003468DF833301298FFF7C6FD0B900B9B0E
:10899400002B05D09DF833200B9B11460D9898476A
:1089A400109B5B001093129B01331293129B072BB5
:1089B400DAD9139B002B80F2EE8000238DF83B3034
:1089C4000023029300230F930AE00F9B9B0014AA39
:1089D40013444FF0FF3243F84C2C0F9B01330F9399
:1089E4000F9B002BF1D000238DF83B300023129312
:1089F40078E06B4A129B13444C3393F900308DF8A2
:108A04002B309DF82B3023F0C0030993644A129B4A
:108A140013444C3393F90030B3F1FF3F5FD001AB03
:108A240019460998FFF7BAFC0346002B57D09DF866
:108A34002B309B098DF823300998FFF75FFD03461F
:108A44001846FFF769FD0790079B002B03D19DF89B
:108A54002330032B43D19DF82330032B04D102ABE5
:108A640019460998FFF7B2FC0998FFF745FC03463D
:108A74008DF81B3003AB19460998FFF78FFC05905E
:108A8400059B002B03D09DF81B30022B06D0059BC1
:108A9400002B24D19DF81B30032B20D19DF82330CB
:108AA400032B13D19DF81B30022B01D1032300E0CB
:108AB40002238DF813309DF8133019460998FFF7F7
:108AC400D9FB9DF83B3001338DF83B30079B002BDD
