:020000022000DC
:10300000000001203D32020095320200973202009A
:10301000993202009B3202009D3202000000000043
:103020000000000000000000000000009F320200CD
:10303000A132020000000000A3320200A53202000B
:10304000A9320200AB320200AD320200AF32020000
:10305000B1320200B3320200B5320200B7320200D0
:10306000B9320200BB320200BD320200BF320200A0
:10307000C1320200C3320200C5320200C732020070
:10308000C9320200CB320200CD320200CF32020040
:10309000D1320200D33202007D3E0200D73202005C
:1030A000D9320200DB320200DD320200DF320200E0
:1030B000E1320200E3320200A7320200A73202002E
:1030C000E5320200E7320200E9320200EB32020090
:0C30D000ED320200EF320200F13202008B
:1030DC00364937480A1A02D0072291438D463549A2
:1030EC0035480A1A06D00722914381F30988022237
:1030FC0082F3148831483249324A00F045F832489C
:10310C003249334A00F040F832483349334A00F030
:10311C003BF833483349344A00F036F833483449E5
:10312C00344A00F031F834483449354A00F02CF870
:10313C0034483549354A00F027F8354835490022DE
:10314C0000F02DF834483549002200F028F83448B6
:10315C003449091A082903DB00220260043001609B
:10316C00314A90471F482049884205D002680430F4
:10317C0003B4904703BCF7E700208646EC460020DA
:10318C0000212A4A9047FEE7884207D0521A05D000
:10319C00037801300B700131013AF9D17047884244
:1031AC0002D002700130FAE77047000000000120E5
:1031BC0000F800200000012000000120184102004E
:1031CC00685600206C560020F4320200F4320200E3
:1031DC002C3F02001841020068560020685600205F
:1031EC00343F0200343F0200343F0200343F0200FF
:1031FC00343F0200343F0200343F0200343F0200EF
:10320C00184102001C4102006C5600206C56002034
:10321C006C5600208C5600208C5600208C560020BA
:10322C008C5600208C580020613202007739020045
:10323C000F484FF00701884385460E4880470E48DB
:10324C00016841F470010160BFF34F8FBFF36F8FC2
:10325C00FFF73EBF09480A490A4A884207D0521A6A
:10326C0005D0037801300B700131013AF9D1704768
:10327C00000001202D33020088ED00E0343F0200F5
:10328C006856002068560020FEE7FEE7FEE7FEE7E2
:10329C00FEE7FEE7FEE7FEE7FEE7FEE7FEE7FEE7FA
:1032AC00FEE7FEE7FEE7FEE7FEE7FEE7FEE7FEE7EA
:1032BC00FEE7FEE7FEE7FEE7FEE7FEE7FEE7FEE7DA
:1032CC00FEE7FEE7FEE7FEE7FEE7FEE7FEE7FEE7CA
:1032DC00FEE7FEE7FEE7FEE7FEE7FEE7FEE7FEE7BA
:0832EC00FEE7FEE7FEE700BF6C
:1032F400BFF34F8F0549054BDB6803F4E062044BD1
:103304001343CB60BFF34F8F00BFFDE700ED00E038
:103314000400FA05024B034A1A6000BF704700BF5D
:10332400685600200090D00308B500F05BF903460E
:10333400002B06D09A4A9B4B1B681B0A03F01F0301
:10334400136000F07BF90346002B02D0964B974A9A
:103354001A6000F08FF90346002B06D0944A954B6F
:103364001B685B0B03F00703136000F0AFF903461F
:10337400002B05D0904A904BDB6823F08073D36018
:1033840000F0C0F90346002B0ED04FF0804300221A
:10339400C3F80C214FF080430022C3F810214FF0F2
:1033A40080430022C3F8382500F0D8F90346002BE7
:1033B40002D0824B03221A6000F0ECF90346002B82
:1033C4000BD07F4B05221A607E4B01221A607E4B84
:1033D40000221A607D4B3F221A6000F0F7F9034681
:1033E400002B76D07A4A4FF08053D3F80434C2F8D5
:1033F4002035774A4FF08053D3F80834C2F8243587
:10340400734A4FF08053D3F80C34C2F82835704A0D
:103414004FF08053D3F81034C2F82C356C4A4FF077
:103424008053D3F81434C2F83035694A4FF08053CE
:10343400D3F81834C2F83435654A4FF08053D3F8C2
:103444001C34C2F84035624A4FF08053D3F820341C
:10345400C2F844355E4A4FF08053D3F82434C2F89E
:1034640048355B4A4FF08053D3F82834C2F84C35C2
:10347400574A4FF08053D3F82C34C2F85035544A8D
:103484004FF08053D3F83034C2F85435504A4FF0DB
:103494008053D3F83434C2F860354D4A4FF080532A
:1034A400D3F83834C2F86435494A4FF08053D3F81E
:1034B4003C34C2F86835464A4FF08053D3F8403460
:1034C400C2F86C35424A4FF08053D3F84434C2F802
:1034D400703500F097F90346002B05D03D4A3E4B6A
:1034E4001B6803F04F03136000F0B8F90346002B88
:1034F4000DD04FF08043D3F8003403F00103002BC8
:1035040005D04FF080436FF00102C3F80024334A22
:10351400324BD3F8883043F47003C2F88830BFF3D9
:103524004F8FBFF36F8F4FF01023D3F80032002B6F
:1035340005DB4FF01023D3F80432002B2BDA284B91
:103544000122C3F8042500BF254BD3F80034002B17
:10355400FAD04FF010231522C3F8002200BF204BED
:10356400D3F80034002BFAD04FF010231522C3F8FF
:10357400042200BF1A4BD3F80034002BFAD0184BA6
:103584000022C3F8042500BF154BD3F80034002BE8
:10359400FAD0FFF7ADFEFFF7BDFE00BF08BD00BFC8
:1035A400403501402403001074C007400DF0ADBA4B
:1035B4003C05004044020010F0ED00E0A00500408E
:1035C40010560040885600401856004014560040DB
:1035D40000C00040E40E00405802001000ED00E07E
:1035E40000E00140124B1B68DBB2062B1DD1114BCE
:1035F4001B6803F00F03002B17D10F4B1B6803F05C
:10360400F003302B01D1012310E00B4B1B6803F0B6
:10361400F003402B01D1012308E0074B1B6803F0A2
:10362400F003502B01D1012300E00023184670471A
:10363400E00F00F0E40F00F0E80F00F00A4B1B6805
:10364400DBB2062B0DD1094B1B6803F00F03002BD3
:1036540007D1074B1B6803F0F003302B01D1012382
:1036640000E0002318467047E00F00F0E40F00F07C
:10367400E80F00F0124B1B68DBB2062B1DD1114B77
:103684001B6803F00F03002B17D10F4B1B6803F0CB
:10369400F003302B01D1012310E00B4B1B6803F026
:1036A400F003402B01D1012308E0074B1B6803F012
:1036B400F003502B01D1012300E00023184670478A
:1036C400E00F00F0E40F00F0E80F00F00A4B1B6875
:1036D400DBB2062B0DD1094B1B6803F00F03002B43
:1036E40007D1074B1B6803F0F003302B01D10123F2
:1036F40000E0002318467047E00F00F0E40F00F0EC
:10370400E80F00F0124B1B68DBB2062B1DD1114BE6
:103714001B6803F00F03002B17D10F4B1B6803F03A
:10372400F003302B01D1012310E00B4B1B6803F095
:10373400F003402B01D1012308E0074B1B6803F081
:10374400F003502B01D1012300E0002318467047F9
:10375400E00F00F0E40F00F0E80F00F00A4B1B68E4
:10376400DBB2062B0DD1094B1B6803F00F03002BB2
:1037740007D1074B1B6803F0F003302B01D1012361
:1037840000E0002318467047E00F00F0E40F00F05B
:10379400E80F00F00A4B1B68DBB2062B0DD1094B76
:1037A4001B6803F00F03002B07D1074B1B6803F0C2
:1037B400F003302B01D1012300E0002318467047A9
:1037C400E00F00F0E40F00F0E80F00F00A4B1B6874
:1037D400DBB2062B0DD1094B1B6803F00F03002B42
:1037E40007D1074B1B6803F0F003502B01D10123D1
:1037F40000E0002318467047E00F00F0E40F00F0EB
:10380400E80F00F0124B1B68DBB2062B1DD1114BE5
:103814001B6803F00F03002B17D10F4B1B6803F039
:10382400F003302B01D1012310E00B4B1B6803F094
:10383400F003402B01D1012308E0074B1B6803F080
:10384400F003502B01D1012300E0002318467047F8
:10385400E00F00F0E40F00F0E80F00F0124B1B68DB
:10386400DBB2062B1DD1114B1B6803F00F03002B99
:1038740017D10F4B1B6803F0F003302B01D1012348
:1038840010E00B4B1B6803F0F003402B01D1012324
:1038940008E0074B1B6803F0F003502B01D1012310
:1038A40000E0002318467047E00F00F0E40F00F03A
:1038B400E80F00F084B00190244B0393019B002B8C
:1038C40040D0234B1A680399019B00BF00BF00BF7F
:1038D40000BF00BF00BF00BF00BF8A422FD000BF9F
:1038E40000BF00BF00BF00BF00BF00BF00BF00BFDC
:1038F40000BF00BF00BF00BF00BF00BF00BF00BFCC
:1039040000BF00BF00BF00BF00BF00BF00BF00BFBB
:1039140000BF00BF00BF00BF00BF00BF00BF00BFAB
:1039240000BF00BF00BF00BF00BF00BF00BF00BF9B
:1039340000BF00BF00BF00BF00BF00BF00BF013B0E
:10394400C3D1019300BF04B0704700BF0024F4004A
:103954006856002000B583B00190019B4FF47A7241
:1039640002FB03F31846FFF7A5FF00BF03B05DF8A1
:1039740004FB00B583B000F01FF9002301930AE0B3
:10398400019B184600F0FEF84FF4FA70FFF7E2FFCF
:10399400019B01330193019B012BF1DDEDE7000055
:1039A40000B583B00190019B1B681F2B04D9054906
:1039B4004FF4E87000F0B4F94FF0A043184603B098
:1039C4005DF804FB343F020000B585B00190084661
:1039D40011461A4603468DF803300B468DF8023023
:1039E40013468DF8013001AB1846FFF7D9FF039059
:1039F400019A9DF803109DF802305B0019439DF86D
:103A040001309B0019439DF818301B0219439DF89F
:103A14001C301B041943039B02F5E07243F8221087
:103A240000BF05B05DF804FB00B585B0039000232A
:103A34000193002300930023012201210398FFF73F
:103A4400C3FF00BF05B05DF804FB00B585B001906D
:103A540001AB1846FFF7A4FF0390019B012202FA71
:103A640003F31946039800F04CF800BF05B05DF865
:103A740004FB00B585B0019001AB1846FFF790FF39
:103A84000390019B012202FA03F31946039800F004
:103A940042F800BF05B05DF804FB00B585B00190A5
:103AA40001AB1846FFF77CFF0390039BD3F8043562
:103AB4000293029BDA43019B012101FA03F31A40AA
:103AC400039BC3F80825019B01229A40029B1A40DC
:103AD400039BC3F80C2500BF05B05DF804FB00B5DB
:103AE40083B001900091009B002B03D10198FFF754
:103AF400C0FF02E00198FFF7A8FF00BF03B05DF824
:103B040004FB82B001900091019B009AC3F8082540
:103B140000BF02B0704782B001900091019B009AEF
:103B2400C3F80C2500BF02B07047000000B583B095
:103B34000190019B012B03D90749442000F0F0F8C0
:103B4400064A019B13441B7800211846FFF7C7FF60
:103B540000BF03B05DF804FB683F0200943F02001D
:103B640000B583B00023019305E00198FFF7DEFF61
:103B7400019B01330193019B012BF6D900BF03B0D4
:103B84005DF804FB00B583B00190019B012B03D9C0
:103B940007495C2000F0C4F8064A019B13441B78D3
:103BA4001846FFF77AFF00BF03B05DF804FB00BFBF
:103BB400683F0200943F020000B583B000230193E4
:103BC40009E0094A019B13441B781846FFF72CFFB0
:103BD400019B01330193019B012BF2D9FFF7C0FF35
:103BE40000BF03B05DF804FB943F020000B589B048
:103BF400039002910192029B9BB2ADF81430019B99
:103C04000693039B079305AB1A46002144F2010077
:103C140000F050F800BF09B05DF804FB86B00390D3
:103C24000291019201238DF817309DF81730204A34
:103C3400039B13601E4A029B53601D4A019B9360C1
:103C4400039B44F20102934212D044F202029342D3
:103C540022D1019B164AD360154BDB681B881A4698
:103C6400134B9A61124BDB685B68114AD36113E012
:103C7400019B0F4A13610E4B1B699B680C4A5361ED
:103C84000B4B1B691B881A46094B9A61084B1B692D
:103C94005B68074AD36100BF72B600BF9DF8173056
:103CA400DBB2002BFAD162B600BF06B0704700BF8A
:103CB4006C56002000B587B0039002910192039BDB
:103CC40041F20102934215D041F20102934202D81B
:103CD400012B11D011E044F20102934207D044F2C7
:103CE4000202934200D008E0019B059305E0019B8A
:103CF400049302E000BF00E000BF084B1B6803F020
:103D04000103002B00D0FFDE019A02990398FFF70C
:103D140085FF00BF07B05DF804FB00BFF0ED00E0D5
:103D240000B585B003460091ADF80630BDF8063005
:103D3400ADF80830009B039302AB1A46002144F20D
:103D44000200FFF7B7FF00BF05B05DF804FB0000F9
:103D540000B583B001900091019B002B03D1104961
:103D64005020FFF7DDFF009B002B03D10C495120AD
:103D7400FFF7D6FF019B009A1A60019B1B681A6823
:103D8400019B5A60019B5A68019B1B685B689A42BD
:103D940002D1019B00225A6000BF03B05DF804FB0E
:103DA400983F020000B583B00190019B002B03D122
:103DB40014496320FFF7B4FF019B1B68002B03D158
:103DC40010496420FFF7ACFF019B5B68002B14D003
:103DD400019B5B681A46019B1B689B6813441A4647
:103DE400019B5A60019B5A68019B1B685B689A425D
:103DF40004D1019B00225A6000E000BF03B05DF8CB
:103E040004FB00BF983F020000B583B00190019B02
:103E1400002B03D10449C420FFF782FF019B5B6898
:103E2400184603B05DF804FBE83F020000B585B016
:103E34006B4610491846FFF78BFF10E06B46184697
:103E4400FFF7E2FF0390039B1B680293039B5A68EE
:103E5400029B104698476B461846FFF7A3FF6B4634
:103E64001846FFF7D1FF0346002BE7D100BF05B08A
:103E74005DF804FB7440020008B5FFF7D7FF00BFEC
:103E840008BD000000B583B00190019B002B03D155
:103E94000449C420FFF744FF019B5B68184603B044
:103EA4005DF804FB8040020048DF704700BF1846FD
:103EB40000B589B0019004AB1846FFF7F5FF0790F1
:103EC400079B002B03D0079B052B20D124E002ABDA
:103ED40013491846FFF73CFF11E002AB1846FFF701
:103EE400D1FF0690069B1B680593049A069B5968AC
:103EF400059B1046984702AB1846FFF753FF02ABE9
:103F04001846FFF7BFFF0346002BE6D1D3E7054A67
:103F14006B210798FFF76AFE00BF09B05DF804FB48
:083F24000C410200D040020034
:083F2C00B53E02000000000098
:103F3400643A5C6E7266355F73646B31345C636FD4
:103F44006D706F6E656E74735C647269766572739E
:103F54005F6E72665C68616C5C6E72665F677069E6
:103F64006F2E6800443A5C6E5246355F53444B31C1
:103F7400345C636F6D706F6E656E74735C626F61D9
:103F84007264735C626F617264732E63000000007C
:103F94001E1F0000443A5C6E5246355F53444B3159
:103FA400345C636F6D706F6E656E74735C6C6962A4
:103FB4007261726965735C6578706572696D656E4E
:103FC40074616C5F73656374696F6E5F766172733D
:103FD4005C6E72665F73656374696F6E5F69746546
:103FE400722E6300643A5C6E7266355F73646B3183
:103FF400345C636F6D706F6E656E74735C6C696254
:104004007261726965735C6578706572696D656EFD
:1040140074616C5F73656374696F6E5F76617273EC
:104024005C6E72665F73656374696F6E5F697465F5
:10403400722E6800443A5C6E5246355F53444B31ED
:10404400345C636F6D706F6E656E74735C736F66F2
:10405400746465766963655C636F6D6D6F6E5C6EC9
:1040640072665F7364682E6300000000010000073D
:104074002C3F0200343F020008000000643A5C6EEA
:104084007266355F73646B31345C636F6D706F6E31
:10409400656E74735C6C69627261726965735C6588
:1040A40078706572696D656E74616C5F7365637455
:1040B400696F6E5F766172735C6E72665F7365635F
:1040C40074696F6E5F697465722E6800443A5C6E41
:1040D4005246355F53444B31345C636F6D706F6E81
:1040E400656E74735C736F66746465766963655C2E
:1040F400636F6D6D6F6E5C6E72665F7364685F7321
:104104006F632E63000000002C3F02002C3F02006E
:04411400080000009F
:044118000090D00340
:040000032000323D6A
:00000001FF
